:020000040800F2
:10000000C0510020E9020008152900082527000832
:10001000112900081B060008952F000800000000A9
:10002000000000000000000000000000290200089D
:100030007F08000800000000850200081929000858
:100040000303000803030008030300080303000878
:100050000303000803030008030300080303000868
:100060000303000803030008030300080303000858
:1000700065070008030300080303000803030008E2
:100080000303000803030008030300080303000838
:1000900021060008310600080303000803030008D6
:1000A0000303000803030008030300080303000818
:1000B0000303000803030008030300080303000808
:1000C00003030008030300080303000803030008F8
:1000D00003030008030300080303000803030008E8
:1000E00003030008030300080303000803030008D8
:1000F00003030008FD2900080303000803030008A8
:1001000003030008030300080303000803030008B7
:1001100003030008030300080303000803030008A7
:100120000303000803030008030300080303000897
:100130000303000803030008030300080303000887
:100140000303000803030008030300080303000877
:100150000303000803030008030300080303000867
:100160000303000803030008030300080303000857
:100170000303000803030008030300080000000055
:10018000030300080303000800F002F800F03CF845
:100190000AA090E8000C82448344AAF10107DA45E2
:1001A00001D100F031F8AFF2090EBAE80F0013F0F8
:1001B000010F18BFFB1A43F00103184790520000CB
:1001C000B0520000103A24BF78C878C1FAD852075C
:1001D00024BF30C830C144BF04680C6070470000C1
:1001E0000023002400250026103A28BF78C1FBD840
:1001F000520728BF30C148BF0B6070471FB505F0DC
:10020000CCF81FBD10B510BD00F0D0F91146FFF7B6
:10021000F5FF03F061F800F0EEF903B4FFF7F2FF29
:1002200003BC00F0F3F900002C4B19680868B0E833
:10023000F04F80F30988BFF36F8F4FF0000080F319
:10024000118870470000000008480068006880F3CB
:1002500008884FF0000080F3148862B661B6BFF3DF
:100260004F8FBFF36F8F00DF00BF00BF08ED00E0CE
:10027000DFF80C00016841F470010160704700BFB5
:1002800088ED00E0EFF30980BFF36F8F134B1A681E
:100290001EF0100F08BF20ED108A20E9F04F10600B
:1002A00009B44FF0500080F31188BFF34F8FBFF3B4
:1002B0006F8F04F069F94FF0000080F3118809BCDA
:1002C00019680868B0E8F04F1EF0100F08BFB0ECD6
:1002D000108A80F30988BFF36F8F704734000020C5
:1002E000EFF3058070470000094880470948004740
:1002F000FEE7FEE7FEE7FEE7FEE7FEE7FEE7FEE7D6
:10030000FEE7FEE704480549054A064B7047000032
:10031000E929000889010008C04B0020C0510020D5
:10032000C04D0020C04D002053EA020C00F069804F
:100330002DE9F04B4FF00006002B1FBFB3FA83F5F9
:1003400003FA05F424FA05F65E4012BF1643B2FA2A
:1003500082F502FA05F4C5F120051EBF22FA05FC5C
:1003600044EA0C04203556EA044C4FEA144418BF02
:10037000641C4FF000084FF00009904271EB030C31
:1003800039D3002919BFB1FA81F701FA07F6B0FA9B
:1003900080F700FA07F6C7F120071EBF20FA07FC16
:1003A00046EA0C062037B6FBF4FCA7EB0507103F26
:1003B00007F01F0BCBF120060CFA0BFB2CFA06F60C
:1003C00044BFB3460026202FA4BF5E464FF0000B6B
:1003D0005BEA060C08BF4FF0010B19EB0B09ABFBF6
:1003E000027C48EB0608C01B06FB02CC0BFB03CCCF
:1003F00071EB0C01C1E70B46024641464846BDE899
:10040000F08B13B54FF000004FF00001AFF3008008
:10041000BDE81C407047032A40F2308010F0030C06
:1004200000F0158011F8013BBCF1020F624498BF47
:1004300011F801CB00F8013B38BF11F8013BA2F1E4
:10044000040298BF00F801CB38BF00F8013B11F05F
:10045000030300F05780083AC0F0088051F8043BCD
:10046000083A51F804CBA0E80810F5E7121D5CBF6C
:1004700051F8043B40F8043BAFF30080D20724BF9F
:1004800011F8013B11F801CB48BF11F8012B24BF33
:1004900000F8013B00F801CB48BF00F8012B704782
:1004A00002F0FF0343EA032242EA024200F05EB890
:1004B0004FF0000200B5134694469646203922BFFD
:1004C000A0E80C50A0E80C50B1F12001BFF4F7AF48
:1004D000090728BFA0E80C5048BF0CC05DF804EB2A
:1004E000890028BF40F8042B08BF704748BF20F898
:1004F000022B11F0804F18BF00F8012B7047704796
:100500007047704710B5203AC0F00B80B1E8185022
:10051000203AA0E81850B1E81850A0E81850BFF4ED
:10052000F5AF5FEA027C24BFB1E81850A0E818508C
:1005300044BF18C918C0BDE810405FEA827C24BFE0
:1005400051F8043B40F8043B08BF7047D20728BF6E
:1005500031F8023B48BF11F8012B28BF20F8023BBD
:1005600048BF00F8012B70474FF000020429C0F08B
:10057000128010F0030C3FF49DAFCCF1040CBCF1E1
:10058000020F18BF00F8012BA8BF20F8022BA1EB27
:100590000C01FFF78FBF5FEAC17C24BF00F8012B7D
:1005A00000F8012B48BF00F8012B7047754600F09A
:1005B00029F8AE4605006946534620F007008546F7
:1005C00018B020B5FFF79EFEBDE820404FF00006B2
:1005D0004FF000074FF000084FF0000B21F007012B
:1005E000AC46ACE8C009ACE8C009ACE8C009ACE86E
:1005F000C0098D4670470446AFF300802046FFF7E0
:100600000CFE0000004870475C4B00200149182098
:10061000ABBEFEE726000200704700BFFEE7000009
:1006200010B5024800F02AFB10BD00004C0100206C
:1006300010B5024800F022FB10BD00004C01002064
:10064000F0B58BB007460C4615461E4604F0020076
:1006500080B1E8040190E80004F0030140EA4100A1
:100660000290F0040390F00004F0030140EA41001E
:1006700004900FE068010190E80004F0030140EAF3
:100680004100029070010390F00004F0030140EA81
:1006900041000490E0100690C4F380000590012012
:1006A000099000200790012008900E200A9001A9CF
:1006B000384600F093F90BB0F0BD0000FEB50746D8
:1006C0000C4615461E464FF4007013490860002082
:1006D00048608860C86008200861380A8DF8040006
:1006E000F8B28DF80500200A8DF80600E0B28DF80A
:1006F0000700280A8DF80800E8B28DF80900300AD2
:100700008DF80A00F0B28DF80B006B4601AA034881
:1007100000F0B9F8FEBD00001C0100204C010020D3
:1007200010B504462068C06840F010002168C86019
:1007300012220249204601F0C0FE10BDBE0000207A
:1007400010B50446204600F07CFD00231A461946E9
:100750002046FFF775FF2068406940F002002168DD
:10076000486110BD10B5024800F0A2FD10BD0000A8
:10077000E00100200146087810381823B0FBF3F29E
:100780000848805CC865032A05D908686FF309002A
:10079000001D886503E008686FF309008865886DAF
:1007A0007047000010540008014600208A6A8B69D7
:1007B000CBB932B1012A0DD0022A03D0032A10D1BD
:1007C0000EE000BFCB6A03F08073B3F1807F00D1ED
:1007D000012007E0CB6AB3F1C07F00D1012001E026
:1007E00000E000BF34E08B69B3F5005F1AD132B18D
:1007F000012A07D0022A03D0032A11D10AE000BF40
:1008000001200EE0CB6A03F08073B3F1807F00D14A
:10081000012006E0CB6AB3F1C07F00D1012000E0E7
:1008200000BF15E032B1012A05D0022A04D0032A04
:100830000CD103E000BF00BF012008E0CB6A03F049
:100840008073B3F1807F00D1012000E000BF00BFC2
:10085000704730B50468246824F4802405682C604F
:10086000046863608468402C04D10468A260046852
:10087000E16003E00468A1600468E26030BD704795
:1008800072B600BFFEE7F0B504460D461E4694F86A
:10089000207020688368A86800B900E000BF012FBD
:1008A00001D0022F7CD103F0806030B903F00060EA
:1008B00018B903F08050002873D0C3F301610229F6
:1008C00005D9606A40F4000060620120F0BD01209B
:1008D00088403060A86860B9B5F800C0E86840EAB0
:1008E0004C5C206800F5C07000EB0110C0F800C03F
:1008F0000FE0D5E901C040EACC00D5F80CC040EAD1
:100900000C00D4F800C00CF5C07C0CEB011CCCF83A
:100910000000D5F810C0206800F5C07000EB011091
:10092000C0F804C0287D01280ED1206800F5C070F1
:1009300000EB0110406840F4807C206800F5C07036
:1009400000EB0110C0F804C0D079000692F806C090
:1009500040EA0C4092F805C040EA0C2C10794CEAB1
:10096000000C206800F5C07000EB0110C0F80CC04E
:10097000D078000692F802C040EA0C4092F801C01C
:1009800040EA0C2092F800C040EA0C00D4F800C005
:100990000CF5C07C0CEB011CCCF80800206801E0D1
:1009A00016E00FE000F5C07000EB0110006840F0A9
:1009B000010C206800F5C07000EB0110C0F800C009
:1009C000002083E7606A40F40010606201207DE748
:1009D000606A40F480206062012077E7F0B5044649
:1009E0000A46216894F82050012D01D0022D7ED1B5
:1009F000424901F50071086840F00100086008688C
:100A000020F47C5008600868566A40EA06200860B6
:100A1000107D00F01F06012000FA06F3C869984314
:100A2000C861A1F50071D069C8B9D1F80C0298432A
:100A3000C1F80C02908880B2968940EA064601F51A
:100A40001070576940F83760108880B2168940EA04
:100A5000064601F51070576900EBC7004660D06983
:100A6000012819D1D1F80C021843C1F80C02908862
:100A700080B2168840EA064601F51070576940F8C2
:100A80003760908980B2168940EA064601F51070F9
:100A9000576900EBC7004660906928B9D1F8040295
:100AA0009843C1F8040204E0D1F804021843C1F8E5
:100AB0000402106928B9D1F814029843C1F814024D
:100AC00004E0D1F814021843C1F81402106A012896
:100AD00004D1D1F81C021843C1F81C02D1F800025D
:100AE00020F00100C1F800020020F0BDFFE7606ABD
:100AF00040F4802060620120F7E7000000640040BD
:100B0000704770B5044694F82050012D01D0022D95
:100B10007DD151B92068C06800F0030080B9606AD7
:100B200040F400106062012070BD2068006900F090
:100B3000030028B9606A40F4001060620120F3E706
:100B4000206800F5D87000EB0110006800F0040088
:100B50009060906840B9206800F5D87000EB0110F3
:100B60000068400D106007E0206800F5D87000EBC9
:100B700001100068C0085060206800F5D87000EBD4
:100B80000110006800F00200D060206800F5D87005
:100B900000EB0110406800F00F001061206800F5C4
:100BA000D87000EB0110406800F47F40000A9061AB
:100BB000206800F5D87000EB01104068000C50610F
:100BC000206800F5D87000EB01108068187020686C
:100BD00000F5D87000EB0110806800F47F40000A37
:100BE0005870206800F5D87000EB0110806800F4A0
:100BF0007F00000C9870206800F5D87000EB0110A1
:100C00008068000ED870206800F5D87000E02FE0F2
:100C100000EB0110C0681871206800F5D87000EB77
:100C20000110C06800F47F40000A5871206800F588
:100C3000D87000EB0110C06800F47F00000C9871C0
:100C4000206800F5D87000EB0110C068000ED87164
:100C500031B92068C06840F020002668F06005E0E7
:100C60002068006940F020002668306100205BE7C2
:100C7000606A40F480206062012055E72DE9F05F52
:100C800004460025206846692068D0F80490206852
:100C900087682068D0F80CA02068D0F810B02068D1
:100CA000D0F8188006F00100002855D007F00100A8
:100CB000C0B101202168886007F0020018B1204609
:100CC00000F0EFFA0EE007F0040010B145F4006503
:100CD00008E007F0080010B145F4805502E0204616
:100CE00000F0DEFA07F48070C8B14FF4807021681C
:100CF000886007F4007018B1204600F0D4FA0EE0C6
:100D000007F4806010B145F4005508E007F4006076
:100D100010B145F4804502E0204600F0C3FA07F424
:100D20008030C8B14FF480302168886007F400300B
:100D300018B1204600F0B9FA0EE007F4802010B197
:100D400045F4004508E007F4002010B145F4803573
:100D500002E0204600F0A8FA06F0080038B10AF0D8
:100D6000100020B145F4007510202168C86006F01D
:100D7000040040B10AF0080028B108202168C860CA
:100D8000204600F00DFA06F0020038B12068C06875
:100D900000F0030010B1204600F004FA06F0400015
:100DA00038B10BF0100020B145F4806510202168A7
:100DB000086106F0200040B10BF0080028B10820BF
:100DC00021680861204600F039FA06F0100038B1B9
:100DD0002068006900F0030010B1204600F02FFAEF
:100DE00006F4003040B109F0100028B1102021684D
:100DF0004860204600F024FA06F4803040B109F043
:100E0000080028B1082021684860204600F04EFA0A
:100E100006F4004088B309F0040078B306F480704B
:100E200020B108F0010008B145F0010506F400709A
:100E300020B108F0020008B145F0020506F4806018
:100E400020B108F0040008B145F0040506F4006084
:100E5000A0B108F0700088B108F07000402817D0E9
:100E600006DC10280BD020280CD0302819D10CE03B
:100E7000502810D0602814D110E01DE019E045F092
:100E800008050FE045F010050CE045F0200509E0ED
:100E900045F0400506E045F0800503E045F4807527
:100EA00000E000BF00BF2068806920F0700021686A
:100EB00088610420216848602DB1606A284360621F
:100EC0002046FFF71DFEBDE8F09F70B504460CB943
:100ED000012070BD94F8200010B9204600F0B0F851
:100EE0002068006840F001002168086000F0BAFC4A
:100EF00005460DE000F0B6FC401B0A2808D9606AE0
:100F000040F400306062052084F820000120E0E712
:100F10002068406800F001000028EBD020680068DD
:100F200020F002002168086000F09CFC05460DE0FE
:100F300000F098FC401B0A2808D9606A40F4003091
:100F40006062052084F820000120C2E72068406824
:100F500000F002000028EBD1207E012806D1206895
:100F6000006840F080002168086005E020680068A3
:100F700020F0800021680860607E012806D120688A
:100F8000006840F040002168086005E020680068C3
:100F900020F0400021680860A07E012806D120686A
:100FA000006840F020002168086005E020680068C3
:100FB00020F0200021680860E07E012806D120682A
:100FC000006820F010002168086005E020680068D3
:100FD00040F0100021680860207F012806D12068B9
:100FE000006840F008002168086005E0206800689B
:100FF00020F0080021680860607F012806D1206881
:10100000006840F004002168086005E0206800687E
:1010100020F0040021680860D4E902010843216936
:101020000843616908436168491E08432168C86133
:1010300000206062012084F82000002049E70000C1
:1010400010B586B00446142101A8FFF731FA4E49C5
:101050002068884249D14D480068401C4B490860CF
:101060000846006801280FD100BF002000904848C2
:10107000006840F00070464908600846006800F0CB
:101080000070009000BF00BF00BF002000904048EB
:101090001038006840F008003D49103908600846E3
:1010A000006800F00800009000BF00BF032001901E
:1010B0000220029000200390032004900920059054
:1010C00001A9344800F0D4FA00220521142000F0D0
:1010D0008DFC142000F07AFC00220521152000F080
:1010E00085FC152000F072FC4CE02B4920688842FA
:1010F00048D100BF002000902548006840F0806083
:10110000234908600846006800F08060009000BF36
:1011100000BF1E480068401C1C4908600846006863
:1011200001280FD100BF002000901948006840F04E
:101130000070174908600846006800F000700090D1
:1011400000BF00BF00BF00200090114810380068A9
:1011500040F002000E49103908600846006800F0AF
:101160000200009000BF00BF6020019002200290AA
:1011700000200390032004900920059001A907484E
:1011800000F076FA06B010BD006400402000002098
:1011900040380240000C0240006800400004024059
:1011A0007047000010B58AB0044601AB03AA0021C5
:1011B0002046FFF7A6FC0398A0F20120062822D2C1
:1011C000DFE800F003080D12171C01A9144802F013
:1011D0006BF819E001A9134802F066F814E001A9C0
:1011E000114802F061F80FE001A9104802F05CF824
:1011F0000AE001A90E4802F057F805E001A90D48E0
:1012000002F052F800E000BF00BF0B4800684069E0
:1012100040F002000849096848610AB010BD0000AA
:10122000E0000020EA000020F4000020FE00002082
:10123000080100201201002074010020704770474F
:10124000704770B5044694F82000012822D102208E
:1012500084F820002068006820F001002168086000
:1012600000F000FB05460DE000F0FCFA401B0A28E8
:1012700008D9606A40F400306062052084F82000DC
:10128000012070BD2068406800F001000028EBD10B
:101290006062F6E7606A40F4002060620120F0E7D7
:1012A000704770477047704770477047704700003D
:1012B000F8B50446002000908C4800684FF41651A1
:1012C000B0FBF1F7A56D2E6894F85C1008208840FB
:1012D000304098B12068006800F0040070B12068C8
:1012E000006820F004002168086094F85C10082071
:1012F0008840A860606D40F00100606594F85C1063
:1013000001208840304068B12068406900F08000CA
:1013100040B194F85C1001208840A860606D40F0F6
:101320000200606594F85C1004208840304068B189
:101330002068006800F0020040B194F85C100420BE
:101340008840A860606D40F00400606594F85C100F
:1013500010208840304078B32068006800F0080012
:1013600050B394F85C1010208840A8602068006892
:1013700000F4802080B12068006800F4002028B9C3
:10138000206CC8B12046216C884715E0A06C98B14C
:101390002046A16C88470FE02068006800F4807048
:1013A00028B92068006820F0080021680860206CD7
:1013B00010B12046216C884794F85C1020208840AA
:1013C0003040002865D02068006800F01000002838
:1013D0005FD094F85C1020208840A86094F8350015
:1013E000052828D12068006820F0160021680860D0
:1013F0002068406920F0800021684861206C08B9AD
:10140000A06C28B12068006820F0080021680860FE
:1014100094F85C103F208840A860012084F83500D3
:1014200000BF002084F8340000BF206D10B12046BA
:10143000216D8847F8BD2068006800F4802080B1E5
:101440002068006800F4002028B9606C10B12046C4
:10145000616C88471DE0E06BD8B12046E16B88479E
:1014600017E02068006800F4807068B920680068A0
:1014700020F0100021680860012084F8350000BFCA
:10148000002084F8340000BFE06B10B12046E16B0F
:101490008847606D38B3606D00F00100F0B1052041
:1014A00084F835002068006820F001002168086099
:1014B00000BF0098401C0090B84200D905E02068A9
:1014C000006800F001000028F3D100BF012084F87B
:1014D000350000BF002084F8340000BFE06C10B17C
:1014E0002046E16C884700BFA4E7000030000020E0
:1014F0002DE9F0410446002500F0B4F9074614B97F
:101500000120BDE8F081606A00B100BF022084F8CC
:10151000350000BF002084F8340000BF2068006858
:1015200020F00100216808600AE000F09BF9C01B70
:10153000052805D920206065032084F83500E0E700
:101540002068006800F001000028EED120680568DE
:1015500021480540D4E901010843E16808432169B5
:10156000084361690843A1690843E1690843216AA6
:1015700008430543606A042803D1D4E90B010843FA
:101580000543206805602068456925F00705606A05
:101590000543606A04280DD1A06A0543E06A48B19A
:1015A0002046FFF701F928B140206065012084F84A
:1015B0003500A6E7206845612046FFF7DBF80646C0
:1015C00094F85C103F208840B060002060650120E6
:1015D00084F83500002094E73F8010F02DE9F047B3
:1015E00004460D4616461F464FF00008D4F85890A2
:1015F00000BF94F83400012802D10220BDE8F08732
:10160000012084F8340000BF94F83500012825D16A
:10161000022084F83500002060653B4632462946AA
:101620002046FFF716F994F85C103F208840C9F86F
:1016300008002068006840F0160021680860206CEF
:1016400028B12068006840F0080021680860206820
:10165000006840F001002168086006E000BF00203B
:1016600084F8340000BF4FF002084046C6E700008F
:10167000F8B502460B460025002400200021D6E0E4
:10168000012606FA01F51E6806EA0504AC4274D18B
:101690001E7906F00306012E04D01E7906F003061B
:1016A000022E13D190684F000326BE40B0434F0076
:1016B000DE68BE4030439060506801268E40B043E3
:1016C0001E79C6F300168E40304350601E7906F036
:1016D0000306032E09D0D0684F000326BE40B04356
:1016E0004F009E68BE403043D0601E7906F003066E
:1016F000022E13D1CF0802F1200656F827004E071C
:10170000F70E0F26BE40B0434F07FF0E1E69BE40C6
:101710003043CF0802F1200646F8270010684F003A
:101720000326BE40B0431E7906F003064F00BE40BC
:10173000304310605E6806F44036002E76D000BF5D
:10174000002600963C4E366846F480463A4F3E608E
:101750003E46366806F48046009600BF00BF374E0E
:101760008F0856F827008E07370F0F26BE40B0436C
:10177000334EB24202D1002624E057E0314EB2424D
:1017800001D101261EE0304EB24201D1022619E0FD
:101790002E4EB24201D1032614E02D4EB24201D1A9
:1017A00004260FE02B4EB24201D105260AE02A4E54
:1017B000B24201D1062605E0284EB24201D10726E9
:1017C00000E008268F073F0FBE4030431B4E8F08B6
:1017D00046F82700224E3068A0435E6806F4801663
:1017E00006B120431E4E3060361D3068A0435E684F
:1017F00006F4001606B12043194E361D3060184E0F
:10180000361F3068A0435E6806F4003606B12043F8
:10181000134E361F3060361F3068A0435E6806F4F2
:10182000803606B120430E4E083E3060491C102918
:10183000FFF426AFF8BD00004438024008380140EC
:10184000000002400004024000080240000C024078
:10185000001002400014024000180240001C024028
:10186000083C014001480068704700002400002047
:101870000348006803490978084401490860704733
:10188000240000202C00002010B50D48006840F412
:1018900000700B4908600846006840F480600860EA
:1018A0000846006840F480700860032000F0DCF80F
:1018B0000F2000F007F800F05FF8002010BD0000D6
:1018C000003C02402DE9F04188B004460027B846AC
:1018D00000BF002001902348006840F48070214937
:1018E00008600846006800F48070019000BF00BFE7
:1018F00002A903A800F08EF9069F1FB900F0B2F903
:10190000054602E000F0AEF945001748B5FBF0F0DF
:10191000A0F1010815481649086040F2E731144863
:10192000C160C0F80480002101618160816100F024
:1019300061FC064696B90E4800F090FC06466EB96A
:101940002D2000F043F8102C07D2002221462D2034
:1019500000F04CF80748046000E00126304608B06B
:10196000BDE8F0814038024040420F0000200040B6
:10197000400200202800002008B500BF0020009091
:101980001148006840F480400F490860084600682C
:1019900000F48040009000BF00BF00BF0020009016
:1019A000081F006840F08050091F08600846006862
:1019B00000F08050009000BF00BF00220F21901E59
:1019C00000F014F808BD0000443802400146084603
:1019D000002809DB00F01F0301229A4043099B0005
:1019E00003F1E023C3F8002100BF70472DE9F05F49
:1019F00080460D461646002701F0CEFA07463946C6
:101A00002A46334601F00700C0F1070ABAF1040F75
:101A100002D94FF0040A01E0C0F1070AD14600F1F3
:101A2000040ABAF1070F02D24FF0000A01E0A0F158
:101A3000030AD4464FF0010A0AFA09FAAAF1010A88
:101A40000AEA020A0AFA0CFA4FF0010B0BFA0CFB35
:101A5000ABF1010B0BEA030B4AEA0B0421464046AB
:101A600001F0A2FABDE8F09F00BF00F00702064BAC
:101A700019684FF6FF031940044B0B4343EA022158
:101A8000014B196000BF70470CED00E00000FA0543
:101A900070B504460D460CB9012070BD5848006869
:101AA00000F00700A84209D255490D7008460068A9
:101AB00000F00700A84201D00120EEE7207800F0F6
:101AC000020002281DD1207800F00400042805D16E
:101AD0004C48006840F4E0504A490860207800F023
:101AE0000800082805D14748006840F4604045498F
:101AF00008604448006820F0F000A16808434149AC
:101B00000860207800F00100A8B36068012807D1C0
:101B10003C4808380068C0F34040B8B90120BCE731
:101B20006068022802D06068032807D13548083869
:101B30000068C0F3406048B90120AEE7314808387A
:101B40000068C0F3400008B90120A6E72D480068EE
:101B500020F00300616808432A490860FFF782FE0D
:101B6000064609E0FFF77EFE801B41F2883188427D
:101B700002D9032091E707E02248006800F00C003A
:101B80006168B0EB810FEDD11D48006800F00700DF
:101B9000A84209D91A490D700846006800F00700EC
:101BA000A84201D0012078E7207800F00400042842
:101BB00007D11448006820F4E050E1680843114957
:101BC0000860207800F00800082808D10D48006857
:101BD00020F46040216940EAC1000A49086000F031
:101BE00061F808490968C1F30311074A515CC8400C
:101BF0000649086006480068FFF764FE00204CE7CD
:101C0000003C024008380240185400083000002010
:101C1000280000200F2202600D4A126802F0030221
:101C200042600B4A126802F0F0028260084A1268B1
:101C300002F4E052C260064A126802F46042D2081E
:101C40000261044A126802F007020A60704700004D
:101C500008380240003C024001480068704700001C
:101C60003000002000B5FFF7F7FF04490968C1F311
:101C70008221034A515CC84000BD00000838024080
:101C80002854000800B5FFF7E7FF04490968C1F3CD
:101C90004231034A515CC84000BD00000838024090
:101CA000285400082DE9F047002400250026A1460D
:101CB0002548006800F00C0020B1042805D0082851
:101CC0003AD105E0DFF8849039E0DFF8849036E01F
:101CD0001D48001F006800F03F041B48001F0068FB
:101CE00000F4800078B11A481749091F0968C1F348
:101CF0008811A0FB01700146224600233846FEF7FA
:101D000013FB05460EE011480F49091F0968C1F38E
:101D10008811A0FB01700146224600233846FEF7D9
:101D200003FB05460848001F0068C0F30140401C43
:101D30004600B5FBF6F902E0DFF8109000BF00BFE7
:101D40004846BDE8F0870000083802400024F4004F
:101D500040787D01F8B504460CB90120F8BD207823
:101D600000F00100002874D0F948006800F00C0071
:101D700004280DD0F648006800F00C00082813D1A4
:101D8000F348001F006800F48000B0F5800F0BD10D
:101D9000EF4808380068C0F34040002859D0606818
:101DA000002856D10120D9E700BF6068B0F5803F18
:101DB00008D1E7480838006840F48030E449083921
:101DC00008601EE06068B0F5A02F0DD1E04808382B
:101DD000006840F48020DE49083908600846006841
:101DE00040F4803008600CE0D9480838006820F4DE
:101DF0008030D749083908600846006820F4802000
:101E0000086000BF606890B1FFF72CFD054606E052
:101E1000FFF728FD401B642801D903209EE7CC482A
:101E200008380068C0F340400028F1D011E0FFF707
:101E300019FD054606E0FFF715FD401B642801D992
:101E400003208BE7C24808380068C0F340400028F0
:101E5000F1D1207800F0020002285FD1BC48006870
:101E600000F00C0058B1BA48006800F00C000828D7
:101E70001CD1B748001F006800F48000B0B9B44816
:101E800008380068C0F3400020B1E068012801D0A4
:101E9000012063E7AE480838006820F0F8002169A7
:101EA00040EAC100AA490839086037E0E06800B399
:101EB0000120A8490860FFF7D5FC054606E0FFF7BA
:101EC000D1FC401B022801D9032047E7A04808386D
:101ED0000068C0F340000028F1D09D480838006831
:101EE00020F0F800216940EAC100994908390860EA
:101EF00014E0002097490860FFF7B4FC054606E0AF
:101F0000FFF7B0FC401B022801D9032026E79048C8
:101F100008380068C0F340000028F1D1207800F0B4
:101F2000080008282CD16069A8B101208A490860FE
:101F3000FFF798FC054606E0FFF794FC401B0228DB
:101F400001D903200AE782486C300068C0F34000E2
:101F50000028F1D014E000207F490860FFF782FCE0
:101F6000054606E0FFF77EFC401B022801D903204E
:101F7000F4E677486C300068C0F340000028F1D1E7
:101F8000207800F00400042870D100277048383011
:101F9000006800F0805090B900BF002000906C48AD
:101FA0003830006840F08050694938310860084690
:101FB000006800F08050009000BF00BF0127674814
:101FC000006800F48070B0B96448006840F4807024
:101FD00062490860FFF746FC054606E0FFF742FC51
:101FE000401B022801D90320B8E65C48006800F4D1
:101FF00080700028F2D000BFA068012808D15448A2
:102000006830006840F001005149683108601DE007
:10201000A06805280DD14E486830006840F00400E3
:102020004B49683108600846006840F001000860CC
:102030000CE047486830006820F0010044496831EE
:1020400008600846006820F00400086000BFA0682F
:10205000A8B1FFF707FC054609E0FFF703FC401BAA
:1020600041F28831884202D9032077E626E03848D9
:1020700068300068C0F340000028EED013E0FFF79E
:10208000F1FB054608E0FFF7EDFB401B41F288310C
:10209000884201D9032061E62D4868300068C0F30A
:1020A00040000028EFD1012F07D1294838300068BF
:1020B00020F0805026493831086000BFA069002810
:1020C00045D02348006800F00C0008285DD0A069C6
:1020D000022845D100201F490866FFF7C3FB0546CB
:1020E00006E0FFF7BFFB401B022801D9032035E6BD
:1020F000174808380068C0F340600028F1D1D4E9DF
:1021000007010843616A40EA81110122A06AC2EB1B
:10211000500041EA00412C20005D41EA00600C497A
:10212000091F086001200B490866FFF79BFB054665
:1021300006E0FFF797FB401B022801D903200DE6BC
:10214000034808380068C0F340600028F1D049E037
:102150000838024000004742800E474200700040AD
:10216000002021490866FFF77DFB054606E0FFF7E2
:1021700079FB401B022801D90320EFE51B480068CA
:10218000C0F340600028F2D12CE0A069012800D102
:10219000E4E51648001D0668A069012820D006F471
:1021A0008001E06981421BD106F03F01206A814233
:1021B00016D147F6C0703040616AB0EB811F0FD175
:1021C00006F440310122A06AC2EB5000B1EB004F8F
:1021D00006D106F070612C20005DB1EB006F01D0DC
:1021E0000120BBE50020B9E500004742003802406D
:1021F0007047704710B504460CB9012010BD94F823
:102200003D0028B9002084F83C00204600F025F865
:10221000022084F83D00211D206800F0F7FB01201A
:1022200084F8460000BF84F83E0001213F2001559C
:10223000402001554120015500BF00BF012084F816
:10224000420043200155442001554520015500BF5F
:10225000012084F83D000020D0E77047014691F846
:102260003D00012801D001207047022081F83D0087
:102270000868C06840F001000B68D8601A4B086815
:1022800098421BD00868B0F1804F17D0174B0868F0
:10229000984213D0164B086898420FD0154B086827
:1022A00098420BD0144B0868984207D0134B08682B
:1022B000984203D0124B086898420CD10868806895
:1022C00000F00702062A0CD00868006840F0010000
:1022D0000B68186005E00868006840F001000B68B2
:1022E00018600020C0E7000000000140000400402A
:1022F00000080040000C0040000401400040014084
:1023000000180040704710B5044620680069C0F30B
:102310004000D8B12068C068C0F34000B0B16FF091
:10232000020021680861012020772068806900F0A0
:10233000030018B12046FFF7E5FF05E0204600F056
:10234000ADF8204600F0ABF8002020772068006947
:10235000C0F38000D8B12068C068C0F38000B0B17D
:102360006FF00400216808610220207720688069EE
:1023700000F4407018B12046FFF7C4FF05E0204686
:1023800000F08CF8204600F08AF8002020772068C2
:102390000069C0F3C000D8B12068C068C0F3C000B5
:1023A000B0B16FF008002168086104202077206830
:1023B000C06900F0030018B12046FFF7A3FF05E055
:1023C000204600F06BF8204600F069F800202077E6
:1023D00020680069C0F30010D8B12068C068C0F35D
:1023E0000010B0B16FF0100021680861082020775C
:1023F0002068C06900F4407018B12046FFF782FFE2
:1024000005E0204600F04AF8204600F048F8002099
:1024100020772068006900F0010058B12068C0688A
:1024200000F0010030B16FF0010021680861204622
:1024300000F036F820680069C0F3C01058B1206879
:10244000C068C0F3C01030B16FF08000216808612F
:102450002046FFF7CDFE20680069C0F3801058B118
:102460002068C068C0F3801030B16FF04000216870
:102470000861204600F020F820680069C0F3401091
:1024800058B12068C068C0F3401030B16FF0200030
:10249000216808612046FFF7ACFE10BD7047704709
:1024A00010B5044603492068884201D1FFF7E0F9DE
:1024B00010BD0000002000407047F8B504460E46ED
:1024C000174694F83E00202836D106B10FB90120F6
:1024D000F8BD00BF94F83C00012801D10220F7E7C5
:1024E000012084F83C0000BF20633A463146204674
:1024F00000F0E8FC0546EDB9206B012819D100BFBA
:1025000000200090206800680090206840680090DB
:1025100000BF00BF00BF00BF21680C3151E8001FA1
:1025200041F0100021680C3141E80002002AF3D18B
:1025300000E001252846CBE70220C9E770B5044634
:102540000D462149206888423DD1204800781F4926
:10255000497840EA0120C0F30A001D4908801B4861
:102560004078C0101949897840EA4110C0F30A0048
:10257000174948801548807880111449C97840EA85
:1025800081001249097940EA8120C0F30A0010490C
:1025900088800E48007940100C49497940EAC11002
:1025A000C0F30A000A49C880084840790011800831
:1025B000087206484079C0F301104872122203499C
:1025C0000448FFF77AFF70BD00480040BE000020BD
:1025D000B40000209C010020704710B504460CB9DF
:1025E000012010BDA06900B100E000BF94F83D00DB
:1025F00028B9002084F83C00204600F027F8242069
:1026000084F83D002068C06820F400502168C8604C
:10261000204600F041FB2068006920F490402168CA
:1026200008612068406920F02A002168486120681C
:10263000C06840F400502168C86000202064202059
:1026400084F83D0084F83E000020CAE710B586B04B
:102650000446142101A8FDF72BFF2C49206888426D
:1026600052D100BF002000902948006840F480202B
:10267000274908600846006800F48020009000BFE9
:1026800000BF00BF0020009021481038006840F0D3
:1026900004001F49103908600846006800F0040073
:1026A000009000BF00BF4FF44060019002200290F4
:1026B00000200390032004900720059001A91548ED
:1026C000FEF7D6FF1448154908604FF000604860D7
:1026D000002112488160C1604FF4806101610021D6
:1026E000416181614FF48071C1614FF440310162F9
:1026F00000214162FEF7FCFE08B1FEF7C1F800BF01
:102700000648A063846300BF06B010BD00480040C7
:10271000403802400008024028600240E0010020EA
:102720007047704700BFFEE710B50D480D490860BF
:102730000320486000210B488160C1604FF43021C4
:10274000016100214161017641768176C176017790
:102750004177FEF7BAFB08B1FEF792F810BD000012
:10276000006400404C01002010B50D480D49086080
:102770000320486000210B488160C1604FF4302184
:10278000016100214161017641768176C176017750
:102790004177FEF79AFB08B1FEF772F810BD000012
:1027A000006800407401002008B500BF00200090C0
:1027B0000A48006840F400100849086008460068AC
:1027C00000F40010009000BF00BF002205210C2083
:1027D000FFF70CF90C20FFF7F9F808BD303802407C
:1027E00010B50B4A00210B4800F0F0FD0A490860C3
:1027F0000A4A00210A4800F0E9FD0A4908600A4A2D
:1028000000210A4800F0E2FD0949086010BD0000FF
:10281000A4530008D72F000814000020C853000854
:102820009153000818000020EC53000819330008E9
:102830001C00002008B500BF00200090244800685C
:1028400040F00200224908600846006800F00200DB
:10285000009000BF00BF00BF002000900846006845
:1028600040F0010008600846006800F00100009098
:1028700000BF00BF00BF002000900846006840F085
:10288000080008600846006800F00800009000BFDB
:1028900000BF00BF002000900846006840F0040020
:1028A00008600846006800F00400009000BF00BF08
:1028B00000BF002000900846006840F080000860DB
:1028C0000846006800F08000009000BF00BF08BD0F
:1028D0003038024010B50B480B4908600B4848607F
:1028E000002109488160C1604FF4806101610421C9
:1028F000416100218161C161FFF76FFE08B1FDF701
:10290000BFFF10BD004800409C010020A0860100D0
:1029100000BFFEE700BFFEE710B54FF0E020006902
:1029200002F0E0FA012801D001F02AFF10BD0000FA
:1029300000B593B0302107A8FDF7BAFD142102A815
:10294000FDF7B6FD00BF002001902548006840F06B
:102950008050234908600846006800F080500190CC
:1029600000BF00BF00BF002001901E48006840F477
:1029700080401C4908600846006800F480400190CF
:1029800000BF00BF0220079001200A9010200B908A
:1029900002200D9000210E9108210F91A821109185
:1029A000022111910421129107A8FFF7D3F908B170
:1029B000FDF766FF0F200290022003900020049094
:1029C0004FF4A05005904FF480500690052102A8C6
:1029D000FFF75EF808B1FDF753FF13B000BD00002C
:1029E00040380240007000400348006840F4700026
:1029F000014908607047000088ED00E010B502480A
:102A0000FFF781FC10BD00004002002010B50268F5
:102A1000294B98420ED0B0F1804F0BD0274B9842F3
:102A200008D0274B984205D0264B984202D0264B1F
:102A3000984203D122F070024B681A431E4B984211
:102A400020D0B0F1804F1DD01C4B98421AD01C4BA7
:102A5000984217D01B4B984214D01B4B984211D070
:102A60001A4B98420ED01A4B98420BD0194B9842F1
:102A700008D0194B984205D0184B984202D0184BF9
:102A8000984203D122F44072CB681A4322F08003AB
:102A90004C6943EA040202608B68C3620B6883627C
:102AA000054B984202D0084B984201D10B69036351
:102AB0000123436110BD00000000014000040040FC
:102AC00000080040000C00400004014000400140AC
:102AD000004401400048014000180040001C004034
:102AE0000020004070B506460025B46B20684069A0
:102AF000C0F3C01594F83D00212805D125B1002070
:102B0000E084204600F0B4F820684069C0F38015E6
:102B100094F83E00222805D125B10020E08520460A
:102B200000F070F8206C40F0100020642046FFF7A1
:102B300053FD70BD70B50546AC6B2868006800F4A5
:102B40008070002842D1E08500BF00BF21680C31B1
:102B500051E8001F21F4807021680C3141E8000227
:102B6000002AF3D100BF00BF00BF2168143151E833
:102B7000001F21F001002168143141E80002002A01
:102B8000F3D100BF00BF00BF2168143151E8001F1E
:102B900021F040002168143141E80002002AF3D1FD
:102BA00000BF202084F83E00206B01280ED100BF1A
:102BB00000BF21680C3151E8001F21F0100021688E
:102BC0000C3141E80002002AF3D100BF206B01283C
:102BD00004D1A18D2046FFF7B1FC02E02046FFF7AB
:102BE0009FFD70BD70B50546AC6B206B012805D10B
:102BF000A08D41082046FFF7A1FC02E02046FFF728
:102C000090FD70BD00BF00BF02680C3252E8002F7B
:102C100022F4907102680C3242E80013002BF3D1C9
:102C200000BF00BF00BF0268143252E8002F22F03C
:102C300001010268143242E80013002BF3D100BFF7
:102C4000016B01290ED100BF00BF02680C3252E8AF
:102C5000002F22F0100102680C3242E80013002B12
:102C6000F3D100BF202180F83E100021016370479E
:102C700000BF00BF02680C3252E8002F22F0C001F2
:102C800002680C3242E80013002BF3D100BF202170
:102C900080F83D10704700002DE9F84F0446206889
:102CA000006920F44050E168084321680861216907
:102CB000A068084361690843E169084300902068FF
:102CC000C06849F20C618843009908432168C860D4
:102CD0002068406920F44070A16908432168486178
:102CE00076492068884203D075492068884203D11C
:102CF000FEF7C8FF814602E0FEF7B4FF8146E069B7
:102D0000B0F5004F6CD102206168A0FB0150034672
:102D10001920A9FB007001462A463846FDF704FB3E
:102D20006421B0FBF1F04FEA001A02206168A0FBB9
:102D300001510B461920A9FB00712A463846FDF7C0
:102D4000F3FA834602206168A0FB01500346192074
:102D5000A9FB00712A463846FDF7E6FA6421B0FB6C
:102D6000F1F000EBC00101EB0010ABEB8000322171
:102D700001EBC0006421B0FBF1F000F0F8000AEBB9
:102D8000400A02206168A0FB015003461920A9FBFC
:102D9000007001462A463846FDF7C6FA83460220EF
:102DA0006168A0FB015003461920A9FB00712A4667
:102DB0003846FDF7B9FA6421B0FBF1F000EBC00131
:102DC00001EB0010ABEB8000322101EBC00064216D
:102DD000B0FBF1F000F007005044216888606AE021
:102DE00004206168A0FB015003461920A9FB007074
:102DF00001462A463846FDF797FA82460420616864
:102E0000A0FB015003461920A9FB007001462A4689
:102E10003846FDF789FA6421B0FBF1F000EBC00100
:102E200001EB0010AAEB8000322101EB00106421BD
:102E3000B0FBF1F000F0F00A04206168A0FB017023
:102E400003461920A9FB00513A462846FDF76CFAC3
:102E50006421B0FBF1F00AEB001A04206168A0FBCA
:102E600001510B461920A9FB00712A463846FDF78F
:102E70005BFA834604206168A0FB015003461920D9
:102E8000A9FB007001462A463846FDF74DFA642139
:102E9000B0FBF1F000EBC00101EB0010ABEB8000E8
:102EA000322101EB00106421B0FBF1F000F00F00C3
:102EB000504421688860BDE8F88F00000010014090
:102EC0000014014077B581B0044615460298A0620F
:102ED000A58500202064222084F83E002A48A16BAA
:102EE000C8632A48A16B08642948A16BC864002004
:102EF000A16B086502AE32682368191D2B46A06BD2
:102F0000FEF76CFB00BF0020009020680068009076
:102F100020684068009000BF00BF00BF002084F818
:102F20003C0000BF206970B100BF00BF21680C31B8
:102F300051E8001F41F4807021680C3141E8000223
:102F4000002AF3D100BF00BF00BF2168143151E84F
:102F5000001F41F001002168143141E80002002AFD
:102F6000F3D100BF00BF00BF2168143151E8001F3A
:102F700041F040002168143141E80002002AF3D1F9
:102F800000BF002004B070BD352B0008E52B000801
:102F9000E52A000800BFFEE702480068C0F30220EF
:102FA000704700000CED00E010B5002804DB0A07B4
:102FB000130E054A135406E00A07140E034A00F0E4
:102FC0000F031B1FD45410BD00E400E018ED00E017
:102FD000EFF30580704700BF00F004F8012000F017
:102FE000A0F9F9E72DE9F0419B48808800EE100A2E
:102FF000B8EE400ADFED990A30EE600ADFED980A7C
:1030000080EE201A9FED970A21EE000A964880ED87
:10301000000A9148C08800EE100AB8EE400ADFEDC1
:103020008F0A30EE600ADFED8E0A80EE201A9FEDE7
:103030008D0A21EE000A8D4880ED000A8648407A0C
:10304000012805D19FED8A0A8A4880ED000A0EE02A
:103050008148407A022805D19FED870A854880ED96
:10306000000A04E09FED850A824880ED000A7A4854
:10307000C088B0F5B57F05DC9FED800A7B4880ED08
:10308000000A0AE07448C08840F29561884204DD75
:103090009FED7A0A754880ED000A6F488088B0F588
:1030A000B67F04DA9FED750A6F4880ED000A6A4822
:1030B000808840F29461884204DD9FED700A6A487E
:1030C00080ED000A64480088B0F5B67F04DA9FED11
:1030D0006B0A684880ED000A5F48008840F29461FE
:1030E000884204DD9FED650A624880ED000A614870
:1030F00090ED000ADFED620A20EE200ADFED610AA2
:1031000080EE201A80ED001A574890ED000A5748CB
:10311000D0ED000A30EE200A5648D0ED000A30EE1D
:10312000200ABDEEC00A10EE100A00B2564908800F
:103130004D4890ED000A4D48D0ED000A30EE600A8F
:103140004C48D0ED000A30EE200ABDEEC00A10EE69
:10315000100A00B24D490880434890ED000AB1EED4
:10316000400A4248D0ED000A30EE200A4148D0ED36
:10317000000A30EE200ABDEEC00A10EE100A00B2BE
:1031800043490880384890ED000AB1EE400A3748BC
:10319000D0ED000A30EE600A3648D0ED000A30EE7D
:1031A000200ABDEEC00A10EE100A00B239490880AC
:1031B0003948B0F9020000EE100AB8EEC00AF0EE8D
:1031C000400A0846B0F9000000EE100AB8EEC00A46
:1031D00000F058F904463148B0F9020000EE100A38
:1031E000B8EEC00AF0EE400A2948B0F9000000EE3F
:1031F000100AB8EEC00A00F045F905462848B0F9B3
:10320000020000EE100AB8EEC00AF0EE400A1F48B5
:10321000B0F9000000EE100AB8EEC00A00F032F972
:1032200006462048B0F9020000EE100AB8EEC00AC7
:10323000F0EE400A1448B0F9000000EE100AB8EEB3
:10324000C00A00F01FF9074623462A463146FDF71B
:1032500035FABDE8F0810000B40000200000804491
:10326000000025440000FA44000000200400002073
:1032700000803B450800002000803BC500000000A6
:1032800000000842000048420C0000200E00002010
:103290001000002012000020FE000020F40000209A
:1032A000EA000020E0000020028812B202814A7881
:1032B0000B7842EA03220280CA788B7842EA032222
:1032C00012B242804A790B7942EA032212B282801A
:1032D0008A79827170470000FEF7D6FAFFF728FB63
:1032E000FFF7A8FAFFF760FAFFF71EFAFFF7F2FA06
:1032F000FFF73AFA0648FDF713FA0648FDF720FAF9
:1033000000F01EF8FFF76CFA00F030F800BFFEE79F
:103310009C0100207401002000BF012000F001F892
:10332000FBE770B50546FFF753FE10B16FF00504DB
:1033300004E0002415B1284601F046F8204670BD8F
:1033400010B5FFF745FE10B16FF0050409E006481F
:10335000006820B9012004490860002401E04FF012
:10336000FF34204610BD00008400002070B5FFF738
:103370002FFE10B16FF005041FE01148006801280E
:1033800019D100BF801F0021002804DB0A07130E9B
:103390000C4A135406E00A07150E0B4A00F00F03FF
:1033A0001B1FD55400BF00BF02200549086001F073
:1033B00087F8002401E04FF0FF34204670BD000084
:1033C0008400002000E400E018ED00E02DE9FF4754
:1033D00080468946144600200390FFF7F9FD002837
:1033E0004ED1B8F1000F4BD0802618258246471EDB
:1033F00044B3206808B1D4F800A0A06900B1A56961
:103400002DB1382D03D8207900F0010018B100202B
:1034100004B0BDE8F087606908B160698608A068FB
:1034200040B1E0685C2805D3206918B1606908B133
:10343000012708E0A06830B9E06820B9206910B918
:10344000002700E00027012F0CD12169A0684B461E
:103450003246CDE9005102905146404601F0E4FC6D
:1034600003900DE067B903A8B2B24B465146CDE9CF
:103470000050404601F0A6FC012801D00020039036
:103480000398C5E70EB5B0EE401AF0EE601AF2EE02
:103490000E2ACDED002ADFED1E2ACDED012AF0EE39
:1034A000082ACDED022A71EE612AB0EE620ADDED46
:1034B000022A30EE423A62EE832A9DED003A43EE54
:1034C000002A9DED013A43EE202AFDEEE22A12EE9B
:1034D000901A08B2B0EE402A70EE802AF0EE620A2E
:1034E000DFED0C2AF4EEE20AF1EE10FA03DDDFED77
:1034F000092AF0EE620ADFED082AF4EEE20AF1EEA4
:1035000010FA03D2DFED032AF0EE620A0EBD0000CE
:103510003333333F00401C4600401CC62DE9F041C8
:1035200005460E461648076816480068001D00F05C
:10353000C3FD681C38B936B112480168091D12482C
:1035400000F010FE1AE07C190E4800684460BC428E
:1035500007D20C480168091D0C48006800F0E8FD1E
:103560000CE008480168091D0948006800F0E0FD0A
:1035700008480068844201D206480460BDE8F08132
:103580004800002034000020780700203C00002084
:10359000380000206400002010B5044600F0EEFD65
:1035A00024480068401C234908602348006840B94B
:1035B000214804600846006801280DD100F0FCF99C
:1035C0000AE01E48006838B91B480068C06AE16A12
:1035D000884201D81848046019480068401C1849FE
:1035E00008600846006860641649E06A0968884215
:1035F00002D91449E06A0860E16A01EB8101124ACC
:1036000002EB8100211D00F0ADFD00F0E1FD0B4853
:10361000006868B108480068C06AE16A884207D259
:103620004FF0805009490860BFF34F8FBFF36F8F91
:1036300010BD000044000020340000205000002095
:10364000600000204C000020C802002004ED00E0D3
:1036500008B500F093FD12480068E8B9114800F081
:1036600057FD114800F054FD0E48104908600E48FF
:103670000F49086000200F4B0F4A102100900A20CC
:1036800001F098F8064908600846006820B10BA1CF
:103690000348006800F05CFE00F09AFD08BD0000E1
:1036A000780000208C070020A00700207000002078
:1036B00074000020B407002004080020546D7251EB
:1036C0000000000010B516E000F058FD0C48C0687E
:1036D000C468201D00F0F0FC0A480068401E09493B
:1036E000086009480068401E0749086000F070FD46
:1036F000204600F05FF8044800680028E4D110BDBF
:1037000064070020440000204000002070B50446FB
:103710000D46206C70B1216CE0680144E160D4E991
:103720000210884201D32168E1602846226CE168DA
:10373000FCF771FE70BD2DE9F04104460F461546B9
:103740004FF00008A66B206C48B9206800282CD1E7
:10375000A06801F07FFC80460020A06025E07DB9D4
:103760003946226C6068FCF756FE216C606808449C
:103770006060D4E90101884217D32068606014E0DA
:103780003946226CE068FCF746FE216CE068411A7D
:10379000E1602168E068884203D2216CA068411A88
:1037A000E160022D01D106B1761E701CA063404677
:1037B000BDE8F08110B5044694F8590030B9206B8B
:1037C00000F024FD204600F021FD1AE094F8590095
:1037D000012803D1204600F019FD12E094F85900A9
:1037E000022801D1012000E0002050B900BF502084
:1037F00080F31188BFF34F8FBFF36F8F00BF00BFFF
:10380000FEE710BD0146084A126812680AB9012293
:1038100000E000220A600A6822B9034A1268D268EE
:10382000106800E0002070477000002030B54FF4B1
:103830007053174800F007042CB1C01D20F007009A
:10384000134C041B1B1B0246124C22600024114D1A
:103850006C60D018083820F007000F4C206000245E
:103860000D4D2D686C600C4D2D682C601146441A6E
:103870004C60094C24680C60084D4C682C60084D65
:103880004C682C604FF00044064D2C6030BD0000A9
:103890005C0F00208800002090000020980000208D
:1038A00094000020A400002000BFFFF70BFF064893
:1038B00000680128F9D94FF0805004490860BFF32F
:1038C0004F8FBFF36F8FF0E7C802002004ED00E0D8
:1038D0002DE9F04106460D4617469846069C0DB95F
:1038E000246000E02760E66325640121204600F0A3
:1038F000D1FF84F84C80BDE8F0812DE9F05F82466D
:103900000E4690469B460A9F0C9C4FEA8801A522D2
:10391000206BFCF7C5FDA8F10100216B01EB8009CC
:1039200029F0070909F0070008B9012000E000208C
:1039300050B900BF502080F31188BFF34F8FBFF301
:103940006F8F00BF00BFFEE786B1002507E0715D05
:1039500004F134004155705D00B902E06D1C102D7A
:10396000F5D300BF00214320015502E0002084F878
:103970003400382F00D33727E762E7640020206542
:10398000201D00F0D2FB04F1180000F0CEFB2461F2
:10399000C7F13800A06164620020606584F85800B7
:1039A0005A465146484600F071FB20600B9808B11A
:1039B0000B980460BDE8F09F10B5002407E004EB0D
:1039C00084010F4A02EB810000F0A2FB641C382C3A
:1039D000F5D30C4800F09CFB0B4800F099FB0B481A
:1039E00000F096FB0A4800F093FB0A4800F090FBB9
:1039F00004480949086004480849086010BD0000EF
:103A0000C8020020280700203C07002050070020A3
:103A10006407002078070020380000203C000020C8
:103A200010B50146164800E0006803688B42FBD3DE
:103A30000246436813448B4204D143684C682344D4
:103A4000436001460A464B6813440468A34211D1FF
:103A50000C4C03682468A34208D04B68046864686F
:103A600023444B6003681B680B6005E0054B1B6833
:103A70000B6001E003680B60884200D0016010BD5C
:103A800088000020900000202DE9F04104460D46FA
:103A900016461F464FF0000865602461B5420CD8F9
:103AA000F01BA169884202D34FF0010811E0211DEB
:103AB0000948006800F03CFB0BE0BE4204D2BD4266
:103AC00002D34FF0010804E0211D0448006800F013
:103AD0002FFB4046BDE8F0817400002070000020FC
:103AE00070B5054600F04AFBA86B08B9012400E058
:103AF000002400F06DFB204670BD70B5054600F057
:103B00003DFBA86BE96B884201D1012400E0002451
:103B100000F05EFB204670BDF8B505460F461A481A
:103B20000068C068C468201D00F0C6FA94F8280038
:103B300000F00400E8B1A06941192B463A4620463E
:103B4000FFF7A2FFD8B1002003462A4601460090A5
:103B5000204601F0DBFB064656B900BF502080F33B
:103B60001188BFF34F8FBFF36F8F00BF00BFFEE719
:103B700005E094F8280020F0010084F82800204691
:103B8000216A8847F8BD000070000020F0B587B0BA
:103B9000A0E00398002811DA04AE56B900BF502007
:103BA00080F31188BFF34F8FBFF36F8F00BF00BF4B
:103BB000FEE7D6E90020B168904700BF03980028CF
:103BC000E6DB059C606908B9012000E0002010B91F
:103BD000201D00F071FA02A800F0DEF805460398F7
:103BE0000A2875D2DFE800F00905073941630608A5
:103BF0003A4200BF00BF00BF00BF94F8280040F069
:103C0000010084F828000498A269811803462A4616
:103C10002046FFF739FFF8B12046216A884794F81B
:103C2000280000F00400B8B1002000900498A169B9
:103C3000421800231946204601F068FB074657B991
:103C400000BF502080F31188BFF34F8FBFF36F8FF9
:103C500000BF00BFFEE700BF3BE000BF94F82800B4
:103C600020F0010084F8280033E000BF94F8280019
:103C700040F0010084F828000498A061A06908B110
:103C8000012000E0002050B900BF502080F31188CF
:103C9000BFF34F8FBFF36F8F00BF00BFFEE7A06978
:103CA00041192B462A462046FFF7EEFE11E094F814
:103CB000280000F0020018B9204600F0A7FA05E03D
:103CC00094F8280020F0010084F8280001E0FFE7C4
:103CD00000BF00BF002203A90448006800F078FF7D
:103CE00000287FF456AF07B0F0BD00007800002038
:103CF000F8B505460C4600F03FFC684600F04CF86D
:103D00000646009820BB44B9B54206D801F040FAF7
:103D100031462846FFF700FF1CE03CB10E48006822
:103D2000006808B9012000E000200446A91B2246D3
:103D30000A48006800F022FB01F02AFA50B94FF05F
:103D4000805007490860BFF34F8FBFF36F8F01E0CA
:103D500001F01EFAF8BD0000740000207800002079
:103D600004ED00E00A490968096809B9012100E089
:103D7000002121B14FF0FF31064A116006E00449ED
:103D80000968C968C868034A416811607047000043
:103D9000380000206400002070B5044601F0B2F83D
:103DA000054607480068854204D200F00BF8012060
:103DB000206001E00020206001480560284670BDB9
:103DC000800000202DE9F84334E025480068C068F1
:103DD000056823480068C068C468201D00F06CF9BD
:103DE0002046216A884794F8280000F0040008B3B0
:103DF000A0694619AE4207D966602461211D1848A2
:103E0000006800F095F915E0002003462A460146B7
:103E10000090204601F07AFA074657B900BF5020BB
:103E200080F31188BFF34F8FBFF36F8F00BF00BFC8
:103E3000FEE700BF0A480068006808B9012000E0FA
:103E400000200028C1D00648D0F80080054800684E
:103E5000034908600348C0F80080BDE8F88300000B
:103E600070000020740000200E480068401C08B953
:103E7000012000E0002050B900BF502080F31188DD
:103E8000BFF34F8FBFF36F8F00BF00BFFEE700BFD0
:103E9000502080F31188BFF34F8FBFF36F8F00BFA7
:103EA00000BFFEE7A800002008B500BF6846FFF786
:103EB000A9FC044620460099FFF71AFFFFF766FEAB
:103EC000F4E770B5044600F059F994F9455010E054
:103ED000606A08B9012000E0002038B904F124002C
:103EE00001F00AF918B100F0A9FA00E003E0681E39
:103EF00045B2002DECDC00BFFF2084F8450000F047
:103F000067F900F03BF994F9445010E0206908B9D2
:103F1000012000E0002048B904F1100001F0ECF8A5
:103F200008B100F08BFA681E45B200E001E0002DF8
:103F3000ECDC00BFFF2084F8440000F049F970BDBC
:103F40002DE9F04104464FF0000800F015FB494808
:103F5000006808B9FFF76AFC47480068204000285D
:103F600070D1D4B1083404F00700B0B104F00700F8
:103F7000C0F10800044404F0070008B9012000E083
:103F8000002050B900BF502080F31188BFF34F8F3D
:103F9000BFF36F8F00BF00BFFEE7002C52D0374841
:103FA000006884424ED8364E3046056801E02E4601
:103FB0002D686868A04202D228680028F7D12D48F1
:103FC000006885423ED0306800F1080828683060FB
:103FD0006868001B102819D92F1907F0070008B9C5
:103FE000012000E0002050B900BF502080F311886C
:103FF000BFF34F8FBFF36F8F00BF00BFFEE768684E
:10400000001B78606C603846FFF70AFD1B49686842
:104010000968081A194908600846006819490968BA
:10402000884203D21548006816490860124968683A
:104030000968084368600020286013480068401C35
:104040001149086001F0A4F808F0070008B9012040
:1040500000E0002050B900BF502080F31188BFF36A
:104060004F8FBFF36F8F00BF00BFFEE74046BDE834
:10407000F081000090000020A400002094000020A7
:1040800088000020980000209C000020001F4FF0B6
:1040900080730360001F21F001030360001F054BC4
:1040A000036014380260001F6FF0020303602038C1
:1040B00070470000693E000801460A69D1E90130F5
:1040C0009860D1E9010358605068884201D188683E
:1040D0005060002008611068401E10601068704732
:1040E000034B0360034B0B60802313607047000099
:1040F000A408002000090020034B0360034B0B6061
:104100004FF4807313607047000B00205C0B00209D
:1041100000F1080141604FF0FF31816000F10801BA
:10412000C160016100210160704700210161704799
:1041300010B502460B685C1C0CB9106907E002F16F
:10414000080000E04068446824689C42FAD944684A
:104150004C604C68A160886041600A611468641C0E
:10416000146010BD42684A6093688B609368596020
:104170009160086103685B1C0360704700BF5020BA
:1041800080F31188BFF34F8FBFF36F8F00BF0E48CE
:104190000068401C0C49086008460068012812D1DC
:1041A0000A480068C0B208B9012000E0002050B9F8
:1041B00000BF502080F31188BFF34F8FBFF36F8F84
:1041C00000BF00BFFEE77047A800002004ED00E03C
:1041D0000D48006850B900BF502080F31188BFF32C
:1041E0004F8FBFF36F8F00BF00BFFEE70648006828
:1041F000401E054908600846006820B9002080F389
:10420000118800BF00BF7047A800002070B50646A7
:104210003546002E44D0083D2C4622496068096886
:10422000084008B1012000E0002050B900BF502034
:1042300080F31188BFF34F8FBFF36F8F00BF00BFB4
:10424000FEE7206808B9012000E0002050B900BF57
:10425000502080F31188BFF34F8FBFF36F8F00BFE3
:1042600000BFFEE70F49606809680840C0B12068D8
:10427000B0B90C49606809688843606000F07CF957
:104280000949606809680844074908602046FFF743
:10429000C7FB06480068401C0449086000F078FF2E
:1042A00070BD0000A400002094000020A0000020A9
:1042B00000204FF0E02108618861064800684FF453
:1042C0007A71B0FBF1F0401E4FF0E0214861072009
:1042D000086170473000002070B5FCF701F8044613
:1042E000102C16D304F1E02090F8F0531548007814
:1042F000854201DB012000E0002050B900BF5020C2
:1043000080F31188BFF34F8FBFF36F8F00BF00BFE3
:10431000FEE70D48006800F4E0600C490968884237
:1043200001D8012000E0002050B900BF502080F3E8
:104330001188BFF34F8FBFF36F8F00BF00BFFEE741
:1043400070BD0000AC0000200CED00E0B0000020CB
:10435000024600200BE0084B53F8303033B9064BCF
:1043600043F8301003EBC0035A6002E0401C0828F9
:10437000F1D300BF70470000880200202DE9F04112
:1043800005460E4617462C46FFF7F8FE94F9440002
:10439000401C10B9002084F8440094F94500401CEA
:1043A00010B9002084F84500FFF712FFA06B28B970
:1043B0003A46314604F1240000F062F82046FFF747
:1043C00080FDBDE8F081000070B504460025D4B141
:1043D0001248006808B9012000E0002050B900BF71
:1043E000502080F31188BFF34F8FBFF36F8F00BF52
:1043F00000BFFEE700F0C0F800212046FFF78EF86E
:1044000000F0C6FE05463DB94FF0805004490860F3
:10441000BFF34F8FBFF36F8F70BD00006C000020A3
:1044200004ED00E00349096801600349096841603F
:10443000704700005C000020480000200120014976
:10444000086070475800002070B504460D4654B906
:1044500000BF502080F31188BFF34F8FBFF36F8FE1
:1044600000BF00BFFEE70548016818312046FFF78E
:104470005FFE01212846FFF751F870BD340000208F
:1044800070B505460E46144655B900BF502080F35E
:104490001188BFF34F8FBFF36F8F00BF00BFFEE7E0
:1044A0000648016818312846FFF75CFE0CB14FF052
:1044B000FF3621463046FFF731F870BD340000204A
:1044C00010B586B000200590049003AA04A905A8A1
:1044D000FFF706FE0022DDE904101346CDE90021B6
:1044E00002901EA11F48039A00F09EFC1E4908601E
:1044F0000846006808B1012400E00024012C02D124
:1045000000F0C8FE0446012C15D100BF502080F3F6
:104510001188BFF34F8FBFF36F8F00BF4FF0FF3095
:104520001249086001201249086000201149086002
:1045300000F072F810E0601C08B1012000E00020DB
:1045400050B900BF502080F31188BFF34F8FBFF3E5
:104550006F8F00BF00BFFEE706B010BD49444C4559
:1045600000000000A9380008680000206400002056
:10457000500000204800002002480068401C01490B
:10458000086070476C0000201E48006818B10120C8
:104590001D49086034E000201B4908601B48016881
:1045A0000CE051B900BF502080F31188BFF34F8F4A
:1045B000BFF36F8F00BF00BFFEE7491E01EB810014
:1045C000134A52F8200008B9012000E0002000281A
:1045D000E7D101EB81020E4B03EB82004268526887
:1045E000426000F108024368934202D14268526877
:1045F00042604268D268074B1A600448016000BFFD
:10460000704700006C000020580000204C00002083
:10461000C8020020340000201CB5524800685249EE
:10462000884201D0012000E0002050B900BF502096
:1046300080F31188BFF34F8FBFF36F8F00BF00BFB0
:10464000FEE7484800684849491E884201D00120D9
:1046500000E0002050B900BF502080F31188BFF364
:104660004F8FBFF36F8F00BF00BFFEE73F49084683
:1046700000780190FF200A461070084600780090EC
:104680009DF8000000F0F0009DF80020904201D15C
:10469000012000E0002050B900BF502080F31188B5
:1046A000BFF34F8FBFF36F8F00BF00BFFEE79DF8D2
:1046B000000000F050002E4A107007202D4A1060B4
:1046C00009E02C480068401E2A4A10609DF800004E
:1046D0004006000E00909DF8000000F08000802849
:1046E000EFD024480068C0F10700042801D1012060
:1046F00000E0002050B900BF502080F31188BFF3C4
:104700004F8FBFF36F8F00BF00BFFEE719480068EF
:104710000002184A10601046008800F4E060106043
:10472000124A019810700F482030006840F4700061
:104730000C49203108600846006840F0704008606D
:10474000FFF7B6FD00200C490860FBF791FD0B4810
:10475000006840F0404009490860FBF775FD002003
:104760001CBD000000ED00E071C20F4100E400E05C
:10477000AC000020B0000020A800002034EF00E0D2
:1047800010B500BF502080F31188BFF34F8FBFF3E7
:104790006F8F00BF00F0BCFB18B14FF08050044990
:1047A000086000BF002080F3118800BF10BD00002A
:1047B00004ED00E02DE9F84380460E4617461D46FD
:1047C000DDF82090B8F1000F01D0012000E00020BA
:1047D00050B900BF502080F31188BFF34F8FBFF353
:1047E0006F8F00BF00BFFEE70DB1012000E0002089
:1047F00050B900BF502080F31188BFF34F8FBFF333
:104800006F8F00BF00BFFEE707B10EB1012000E0CF
:10481000002050B900BF502080F31188BFF34F8FA4
:10482000BFF36F8F00BF00BFFEE707B90EB90120CD
:1048300000E0002050B900BF502080F31188BFF382
:104840004F8FBFF36F8F00BF00BFFEE75020009077
:104850000098502801D1012000E0002050B900BF8D
:10486000502080F31188BFF34F8FBFF36F8F00BFCD
:1048700000BFFEE700BF2C464CB1012084F8460083
:104880004B463A46314640460094FFF721F8204611
:10489000BDE8F88370B505460E462C4654B900BFF6
:1048A000502080F31188BFF34F8FBFF36F8F00BF8D
:1048B00000BFFEE7FFF762FCD4E90F12206801FB9E
:1048C0000200A0600020A06320686060E06B401ED2
:1048D000226C216800FB0211E160FF2084F8440093
:1048E00084F845009EB9206908B9012000E0002045
:1048F000A8B904F1100000F0FFFB80B14FF0805028
:1049000009490860BFF34F8FBFF36F8F07E004F1D1
:104910001000FFF7FDFB04F12400FFF7F9FBFFF7A0
:1049200057FC012070BD000004ED00E02DE9FF43BD
:1049300083B0064688461D464FF00009344654B9F8
:1049400000BF502080F31188BFF34F8FBFF36F8FEC
:1049500000BF00BFFEE7B8F1000F01D1206C08B91D
:10496000012000E0002050B900BF502080F31188E2
:10497000BFF34F8FBFF36F8F00BF00BFFEE7022D65
:1049800002D1E06B012801D1012000E0002050B9E4
:1049900000BF502080F31188BFF34F8FBFF36F8F9C
:1049A00000BF00BFFEE700F09DFA08B9059808B9FE
:1049B000012000E0002050B900BF502080F3118892
:1049C000BFF34F8FBFF36F8F00BF00BFFEE700BF85
:1049D000FFF7D4FBA06BE16B884201D3022D28D1F5
:1049E0002A4641462046FEF7A6FE0746606A08B9F9
:1049F000012000E0002068B904F1240000F07CFBF5
:104A000088B14FF0805032490860BFF34F8FBFF339
:104A10006F8F08E03FB14FF080502D490860BFF321
:104A20004F8FBFF36F8FFFF7D3FB012007B0BDE8B7
:104A3000F083059818B9FFF7CBFB0020F6E7B9F132
:104A4000000F04D101A8FFF7EDFC4FF00109FFF7BB
:104A5000BFFBFFF791FDFFF791FB94F94400401C69
:104A600010B9002084F8440094F94500401C10B9A6
:104A7000002084F84500FFF7ABFB05A901A800F072
:104A80005BF9F0B92046FFF738F8A0B104F1100047
:104A90000599FFF7D9FC2046FFF713FA00F078FBE1
:104AA000002895D14FF0805009490860BFF34F8F1F
:104AB000BFF36F8F8CE72046FFF703FA00F068FB27
:104AC00086E72046FFF7FDF900F062FB0020ADE726
:104AD00004ED00E02DE9F84F07468A4690461E4651
:104AE0003C4654B900BF502080F31188BFF34F8F6C
:104AF000BFF36F8F00BF00BFFEE7BAF1000F01D117
:104B0000206C08B9012000E0002050B900BF5020FF
:104B100080F31188BFF34F8FBFF36F8F00BF00BFCB
:104B2000FEE7022E02D1E06B012801D1012000E056
:104B3000002050B900BF502080F31188BFF34F8F81
:104B4000BFF36F8F00BF00BFFEE7FFF7C5FB00BFDD
:104B50005021EFF3118081F31188BFF34F8FBFF322
:104B60006F8F00BF0546A06BE16B884201D3022E18
:104B700025D194F945B0A06B0090324651462046AD
:104B8000FEF7D9FD0BF1010088B9606A08B9012070
:104B900000E0002050B904F1240000F0ADFA28B183
:104BA000B8F1000F02D00120C8F8000004E00BF1BA
:104BB000010040B284F845004FF0010901E04FF0D8
:104BC000000900BF85F3118800BF4846BDE8F88F93
:104BD0002DE9F74183B005460E464FF000082C46FC
:104BE00054B900BF502080F31188BFF34F8FBFF33B
:104BF0006F8F00BF00BFFEE70EB9206C08B901201F
:104C000000E0002050B900BF502080F31188BFF3AE
:104C10004F8FBFF36F8F00BF00BFFEE700F062F958
:104C200008B9059808B9012000E0002050B900BF7C
:104C3000502080F31188BFF34F8FBFF36F8F00BFF9
:104C400000BFFEE700BFFFF799FAA76BF7B1314647
:104C50002046FEF75BFD781EA063206908B901209D
:104C600000E0002060B904F1100000F045FA38B10E
:104C70004FF080502F490860BFF34F8FBFF36F8F05
:104C8000FFF7A6FA012006B0BDE8F081059818B933
:104C9000FFF79EFA0020F6E7B8F1000F04D101A853
:104CA000FFF7C0FB4FF00108FFF792FAFFF764FC33
:104CB000FFF764FA94F94400401C10B9002084F80E
:104CC000440094F94500401C10B9002084F84500C8
:104CD000FFF77EFA05A901A800F02EF8F0B92046EA
:104CE000FEF7FEFEA0B104F124000599FFF7ACFB2E
:104CF0002046FFF7E6F800F04BFA0028A3D14FF06A
:104D000080500C490860BFF34F8FBFF36F8F9AE755
:104D10002046FFF7D6F800F03BFA94E72046FFF76D
:104D2000D0F800F035FA2046FEF7DAFE00288AD0E7
:104D30000020A8E704ED00E070B505460C4655B923
:104D400000BF502080F31188BFF34F8FBFF36F8FE8
:104D500000BF00BFFEE754B900BF502080F31188A8
:104D6000BFF34F8FBFF36F8F00BF00BFFEE7FFF7AA
:104D700005FA124802686868131A2068401C08B9CE
:104D8000002617E00E4928680968884204D0686840
:104D9000904201D801260DE02068984207D920688A
:104DA000C01A20602846FFF73DFB002602E00020E5
:104DB00020600126FFF70CFA304670BD4800002045
:104DC0005C0000202DE9FF4F85B0804689461746DC
:104DD000DDE912ABB800FFF7B3F8064656B15C2028
:104DE000FFF7AEF804460CB1266304E03046FFF747
:104DF0000DFA00E000248CB1002084F85900CDE9C0
:104E000000ABCDE902403A4649464046089BFEF7D2
:104E100074FD2046FEF7C0FB012501E04FF0FF3591
:104E2000284609B0BDE8F08F2DE9F04F85B0074660
:104E3000884691469A46DDE90EB6109C0EB10120D7
:104E400000E0002050B900BF502080F31188BFF36C
:104E50004F8FBFF36F8F00BF00BFFEE70CB1012083
:104E600000E0002050B900BF502080F31188BFF34C
:104E70004F8FBFF36F8F00BF00BFFEE75C20039032
:104E800003985C2801D1012000E0002050B900BF48
:104E9000502080F31188BFF34F8FBFF36F8F00BF97
:104EA00000BFFEE700BFB4B1AEB125462C462E636D
:104EB000022085F85900002004A953464A46CDE94E
:104EC00000B1CDE9025041463846FEF716FD2846AE
:104ED000FEF762FB01E000200490049805B0BDE8F5
:104EE000F08F00000549096809B9012005E004496F
:104EF000096809B9022000E0002070475000002036
:104F00006C0000200149086870470000480000203C
:104F10002DE9F0414FF000084348006800287BD19C
:104F200042480068451C4148056015BB4048006880
:104F3000006808B9012000E0002050B900BF5020EF
:104F400080F31188BFF34F8FBFF36F8F00BF00BF97
:104F5000FEE7374807683748006835490860354834
:104F6000076035480068401C33490860FEF7FAFEC8
:104F700000BF3248006885423BD300BF2C48006820
:104F8000006808B9012000E0002020B14FF0FF3098
:104F90002A4908602CE026480068C068C468666832
:104FA000B54202D22548066022E0201DFFF784F8B2
:104FB000A06A18B104F11800FFF77EF82049E06AF2
:104FC0000968884202D91E49E06A0860E16A01EB7B
:104FD00081011C4A02EB8100211DFFF7C3F81A4929
:104FE000E06A0968C96A8842C8D34FF00108C5E77A
:104FF00000BF15480068C06A00EB8000114951F8F5
:105000002000012801D94FF001081048006808B1BC
:105010004FF0010805E0FFE70D480068401C0C490F
:1050200008604046BDE8F0816C0000204800002088
:10503000380000203C0000205C00002064000020BC
:105040004C000020C802002034000020580000203E
:105050005400002070B505462C460026002D43D094
:1050600022480068844201D1012000E0002050B9AC
:1050700000BF502080F31188BFF34F8FBFF36F8FB5
:1050800000BF00BFFEE7206D50B900BF502080F385
:105090001188BFF34F8FBFF36F8F00BF00BFFEE7D4
:1050A000206D401E2065E16CE06A88421CD0206DB6
:1050B000D0B9201DFFF700F8E06CE062E06AC0F1B3
:1050C0003800A0610A49E06A0968884202D90849A3
:1050D000E06A0860E16A01EB8101064A02EB8100A7
:1050E000211DFFF73FF80126304670BD3400002037
:1050F0004C000020C802002070B50646F068C46865
:1051000054B900BF502080F31188BFF34F8FBFF315
:105110006F8F00BF00BFFEE704F11800FEF7CCFF61
:1051200015480068A0B9201DFEF7C6FF1349E06AC4
:105130000968884202D91149E06A0860E16A01EB16
:1051400081010F4A02EB8100211DFFF70BF804E0FB
:1051500004F118010B48FFF705F80B49E06A0968EC
:10516000C96A884204D9012501200849086000E085
:105170000025284670BD00006C0000204C00002077
:10518000C8020020500700203400002058000020F2
:1051900070B5002400263648006850B900BF502082
:1051A00080F31188BFF34F8FBFF36F8F00BF00BF35
:1051B000FEE7FEF7E3FF2E480068401E2C4908601A
:1051C0000846006800284ED12A48006800284AD0C6
:1051D00023E02948C068C46804F11800FEF76CFF9A
:1051E000201DFEF769FF2549E06A0968884202D957
:1051F0002249E06A0860E16A01EB8101204A02EB82
:105200008100211DFEF7AEFF1E49E06A0968C96AE8
:10521000884202D301201C4908601748006808B979
:10522000012000E000200028D3D00CB1FEF79AFD49
:105230001648056865B100BFFFF76AFE10B101208E
:10524000114908606D1E002DF6D100200F4908603D
:105250000D48006838B1012630070D490860BFF3DA
:105260004F8FBFF36F8FFEF7B3FF304670BD000066
:105270006C00002044000020500700204C0000205B
:10528000C8020020340000205800002054000020F4
:1052900004ED00E010B586B00024FEF7D9F91648F9
:1052A0000068D0B100200590049003AA04A905A8C5
:1052B000FEF722FF0222DDE904100023CDE90021E0
:1052C00002900EA10F48039AFFF7AEFD0E49086049
:1052D0000846006800B1012400BF54B900BF502047
:1052E00080F31188BFF34F8FBFF36F8F00BF00BFF4
:1052F000FEE7204606B010BD78000020546D7220F5
:1053000053766300A93E00087C0000202DE9FF478A
:1053100004460D4616461F46DDF830804FF0000962
:1053200054B900BF502080F31188BFF34F8FBFF3F3
:105330006F8F00BF00BFFEE71448006810B30095F0
:1053400001960294062D15DAFFF7CCFD022808D14C
:105350000023424669460D480068FFF7E7FA814698
:1053600010E000231A46694608480068FFF7DEFA95
:10537000814607E000233A46694604480068FFF783
:10538000A9FB8146484604B0BDE8F08778000020BC
:1053900000BF0120FDF7C5FFFBE74FF04070E1EED5
:1053A000100A70474454000800000000000000008C
:1053B0000000000000000000000200001F000000CC
:1053C00000000000000000003C5400080000000045
:1053D00000000000000000000000000000020000CB
:1053E0002100000000000000000000003054000810
:1053F00000000000000000000000000000000000AD
:10540000000200002000000000000000000000007A
:105410000006101600061016000000000000000034
:10542000010203040607080900000000010203044A
:105430006D6F746F725F73746174650079616F6B07
:105440006F6E6700646970616E0000006C54000844
:1054500000000020B4000000C4010008205500082E
:10546000B40000200C510000E00100080000000022
:10547000000000000000000000000000000000002C
:10548000000000000000000000000000000000001C
:105490000000000010000000010000000024F400E3
:1054A00000000000000000000000000000000000FC
:1054B00000000000000000000000000000000000EC
:1054C00000000000000000000000000000000000DC
:1054D00000000000000000000000000000000000CC
:1054E00000000000000000000000000000000000BC
:1054F00000000000000000000000000000000000AC
:10550000000000000000000000000000000000009B
:1055100000000000AAAAAAAA0000000000000000E3
:040000050800018965
:00000001FF
