:020000040800F2
:1000000018520020E9020008792A00089D280008FB
:10001000752A00083B060008053B000800000000A8
:10002000000000000000000000000000290200089D
:10003000C309000800000000850200088934000898
:100040000303000803030008030300080303000878
:100050000303000803030008030300080303000868
:100060000303000803030008030300080303000858
:10007000A90800080303000803030008030300089D
:100080000303000803030008030300080303000838
:100090004106000851060008030300080303000896
:1000A0000303000803030008030300080303000818
:1000B0000303000803030008030300080303000808
:1000C00003030008030300080303000803030008F8
:1000D00003030008030300080303000803030008E8
:1000E00003030008030300080303000803030008D8
:1000F000030300086D35000803030008030300082C
:1001000003030008030300080303000803030008B7
:1001100003030008030300080303000803030008A7
:100120000303000803030008030300080303000897
:100130000303000803030008030300080303000887
:1001400061060008710600080303000803030008A5
:100150000303000803030008030300080303000867
:100160000303000803030008030300080303000857
:100170000303000803030008030300080000000055
:10018000030300080303000800F002F800F03CF845
:100190000AA090E8000C82448344AAF10107DA45E2
:1001A00001D100F031F8AFF2090EBAE80F0013F0F8
:1001B000010F18BFFB1A43F0010318477C890000A8
:1001C0009C890000103A24BF78C878C1FAD8520739
:1001D00024BF30C830C144BF04680C6070470000C1
:1001E0000023002400250026103A28BF78C1FBD840
:1001F000520728BF30C148BF0B6070471FB508F0D9
:10020000B8FA1FBD10B510BD00F0E4F91146FFF7B4
:10021000F5FF05F03DFB00F002FA03B4FFF7F2FF33
:1002200003BC00F003FA00002C4B19680868B0E822
:10023000F04F80F30988BFF36F8F4FF0000080F319
:10024000118870470000000008480068006880F3CB
:1002500008884FF0000080F3148862B661B6BFF3DF
:100260004F8FBFF36F8F00DF00BF00BF08ED00E0CE
:10027000DFF80C00016841F470010160704700BFB5
:1002800088ED00E0EFF30980BFF36F8F134B1A681E
:100290001EF0100F08BF20ED108A20E9F04F10600B
:1002A00009B44FF0500080F31188BFF34F8FBFF3B4
:1002B0006F8F06F00BFD4FF0000080F3118809BC32
:1002C00019680868B0E8F04F1EF0100F08BFB0ECD6
:1002D000108A80F30988BFF36F8F704728000020D1
:1002E000EFF3058070470000094880470948004740
:1002F000FEE7FEE7FEE7FEE7FEE7FEE7FEE7FEE7D6
:10030000FEE7FEE704480549054A064B7047000032
:100310005935000889010008184C002018520020A7
:10032000184E0020184E002053EA020C00F069809D
:100330002DE9F04B4FF00006002B1FBFB3FA83F5F9
:1003400003FA05F424FA05F65E4012BF1643B2FA2A
:1003500082F502FA05F4C5F120051EBF22FA05FC5C
:1003600044EA0C04203556EA044C4FEA144418BF02
:10037000641C4FF000084FF00009904271EB030C31
:1003800039D3002919BFB1FA81F701FA07F6B0FA9B
:1003900080F700FA07F6C7F120071EBF20FA07FC16
:1003A00046EA0C062037B6FBF4FCA7EB0507103F26
:1003B00007F01F0BCBF120060CFA0BFB2CFA06F60C
:1003C00044BFB3460026202FA4BF5E464FF0000B6B
:1003D0005BEA060C08BF4FF0010B19EB0B09ABFBF6
:1003E000027C48EB0608C01B06FB02CC0BFB03CCCF
:1003F00071EB0C01C1E70B46024641464846BDE899
:10040000F08B13B54FF000004FF00001AFF3008008
:10041000BDE81C407047032A40F2308010F0030C06
:1004200000F0158011F8013BBCF1020F624498BF47
:1004300011F801CB00F8013B38BF11F8013BA2F1E4
:10044000040298BF00F801CB38BF00F8013B11F05F
:10045000030300F06280083AC0F0088051F8043BC2
:10046000083A51F804CBA0E80810F5E7121D5CBF6C
:1004700051F8043B40F8043BAFF30080D20724BF9F
:1004800011F8013B11F801CB48BF11F8012B24BF33
:1004900000F8013B00F801CB48BF00F8012B704782
:1004A00002F0FF0343EA032242EA024200F069B885
:1004B0004FF0000200B5134694469646203922BFFD
:1004C000A0E80C50A0E80C50B1F12001BFF4F7AF48
:1004D000090728BFA0E80C5048BF0CC05DF804EB2A
:1004E000890028BF40F8042B08BF704748BF20F898
:1004F000022B11F0804F18BF00F8012B7047704796
:100500007047704710B500F05DF8006810BD10B579
:10051000044600F057F8046010BD10B5203AC0F052
:100520000B80B1E81850203AA0E81850B1E81850F4
:10053000A0E81850BFF4F5AF5FEA027C24BFB1E831
:100540001850A0E8185044BF18C918C0BDE81040A2
:100550005FEA827C24BF51F8043B40F8043B08BFAB
:100560007047D20728BF31F8023B48BF11F8012B72
:1005700028BF20F8023B48BF00F8012B70474FF01E
:1005800000020429C0F0128010F0030C3FF492AF77
:10059000CCF1040CBCF1020F18BF00F8012BA8BF6E
:1005A00020F8022BA1EB0C01FFF784BF5FEAC17CAE
:1005B00024BF00F8012B00F8012B48BF00F8012BE5
:1005C0007047000000487047B44B00200048704757
:1005D000B44B00207546FFF7F9FFAE4605006946AB
:1005E000534620F00700854618B020B5FFF78AFE75
:1005F000BDE820404FF000064FF000074FF0000824
:100600004FF0000B21F00701AC46ACE8C009ACE8A4
:10061000C009ACE8C009ACE8C0098D467047044683
:10062000AFF300802046FFF7F8FD000001491820D5
:10063000ABBEFEE726000200704700BFFEE70000E9
:1006400010B5024800F0BCFB10BD0000A80000205F
:1006500010B5024800F0B4FB10BD0000A800002057
:1006600010B5024800F0ACFB10BD0000D000002027
:1006700010B5024800F0A4FB10BD0000D00000201F
:10068000F0B58BB007460C4615461E4604F0020036
:1006900080B1E8040190E80004F0030140EA410061
:1006A0000290F0040390F00004F0030140EA4100DE
:1006B00004900FE068010190E80004F0030140EAB3
:1006C0004100029070010390F00004F0030140EA41
:1006D00041000490E0100690C4F3800005900120D2
:1006E000099000200790012008900E200A90142005
:1006F000069001A9384600F013FA0BB0F0BD0000D7
:100700003EB504464FF40070184908600020486068
:100710008860C86008200861B4F84000000A8DF8BD
:10072000040094F840008DF805004220005B000AA8
:100730008DF806004220005D8DF807004420005B24
:10074000000A8DF808004420005D8DF8090046205D
:10075000005B000A8DF80A004620005D8DF80B0052
:100760006B4601AA024800F030F93EBD584B00200C
:10077000D00000203EB5044640F2FF101849086042
:10078000002048608860C86008200861B4F848000C
:10079000000A8DF8040094F848008DF805004A20FE
:1007A000005B000A8DF806004A20005D8DF8070006
:1007B0004C20005B000A8DF808004C20005D8DF88D
:1007C00009004E20005B000A8DF80A004E20005DF3
:1007D0008DF80B006B4601AA024800F0F6F83EBD0A
:1007E000704B0020D000002010B504462068C0687F
:1007F00040F010002168C86012220249204601F032
:1008000018FF10BD924B002010B50446204600F0A2
:10081000D4FD00231A4619462046FFF731FF206811
:10082000406940F002002168486140F2E4701C49D0
:10083000088741F68A211A48418741F67451818719
:1008400041F67771C18740F6E4301549088641F2D8
:10085000427113484186BC21818641F67A31C186B6
:1008600000201AE00E49403131F9101040F6C41250
:10087000914203DD0A49403121F8102008494031F6
:1008800031F91010074A914205DA4FF23C620449EF
:10089000403121F81020411CC8B20428E2DB10BD11
:1008A000B84A00203CF6FFFF10B5024800F0BCFD3E
:1008B00010BD00003C0100200146087810381823C4
:1008C000B0FBF3F20848805CC865032A05D90868C4
:1008D0006FF30900001D886503E008686FF30900E5
:1008E0008865886D70470000C088000801460020B8
:1008F0008A6A8B69CBB932B1012A0DD0022A03D0A2
:10090000032A10D10EE000BFCB6A03F08073B3F16D
:10091000807F00D1012007E0CB6AB3F1C07F00D116
:10092000012001E000E000BF34E08B69B3F5005F17
:100930001AD132B1012A07D0022A03D0032A11D1D9
:100940000AE000BF01200EE0CB6A03F08073B3F130
:10095000807F00D1012006E0CB6AB3F1C07F00D1D7
:10096000012000E000BF15E032B1012A05D0022AC3
:1009700004D0032A0CD103E000BF00BF012008E02F
:10098000CB6A03F08073B3F1807F00D1012000E0D7
:1009900000BF00BF704730B50468246824F4802489
:1009A00005682C60046863608468402C04D1046886
:1009B000A2600468E16003E00468A1600468E2608A
:1009C00030BD704772B600BFFEE7F0B504460D4675
:1009D0001E4694F8207020688368A86800B900E07B
:1009E00000BF012F01D0022F7CD103F0806030B90D
:1009F00003F0006018B903F08050002873D0C3F3EF
:100A00000161022905D9606A40F40000606201209A
:100A1000F0BD012088403060A86860B9B5F800C01A
:100A2000E86840EA4C5C206800F5C07000EB0110FB
:100A3000C0F800C00FE0D5E901C040EACC00D5F80D
:100A40000CC040EA0C00D4F800C00CF5C07C0CEBE4
:100A5000011CCCF80000D5F810C0206800F5C0706B
:100A600000EB0110C0F804C0287D01280ED12068D9
:100A700000F5C07000EB0110406840F4807C2068F5
:100A800000F5C07000EB0110C0F804C0D07900067A
:100A900092F806C040EA0C4092F805C040EA0C2CDF
:100AA00010794CEA000C206800F5C07000EB0110D2
:100AB000C0F80CC0D078000692F802C040EA0C40A2
:100AC00092F801C040EA0C2092F800C040EA0C0005
:100AD000D4F800C00CF5C07C0CEB011CCCF808006D
:100AE000206801E016E00FE000F5C07000EB011097
:100AF000006840F0010C206800F5C07000EB0110A8
:100B0000C0F800C0002083E7606A40F40010606213
:100B100001207DE7606A40F480206062012077E771
:100B2000F0B504460A46216894F82050012D01D002
:100B3000022D7ED1424901F50071086840F00100A4
:100B40000860086820F47C5008600868566A40EA2B
:100B500006200860107D00F01F06012000FA06F351
:100B6000C8699843C861A1F50071D069C8B9D1F8C6
:100B70000C029843C1F80C02908880B2968940EA32
:100B8000064601F51070576940F83760108880B24A
:100B9000168940EA064601F51070576900EBC70058
:100BA0004660D069012819D1D1F80C021843C1F868
:100BB0000C02908880B2168840EA064601F5107053
:100BC000576940F83760908980B2168940EA064636
:100BD00001F51070576900EBC7004660906928B9AD
:100BE000D1F804029843C1F8040204E0D1F80402E9
:100BF0001843C1F80402106928B9D1F814029843C7
:100C0000C1F8140204E0D1F814021843C1F8140228
:100C1000106A012804D1D1F81C021843C1F81C0243
:100C2000D1F8000220F00100C1F800020020F0BD60
:100C3000FFE7606A40F4802060620120F7E700006F
:100C400000640040704770B5044694F82050012DB0
:100C500001D0022D7DD151B92068C06800F0030099
:100C600080B9606A40F400106062012070BD2068A5
:100C7000006900F0030028B9606A40F40010606267
:100C80000120F3E7206800F5D87000EB0110006840
:100C900000F004009060906840B9206800F5D870BA
:100CA00000EB01100068400D106007E0206800F5BF
:100CB000D87000EB01100068C0085060206800F593
:100CC000D87000EB0110006800F00200D0602068CE
:100CD00000F5D87000EB0110406800F00F001061C3
:100CE000206800F5D87000EB0110406800F47F40E8
:100CF000000A9061206800F5D87000EB0110406890
:100D0000000C5061206800F5D87000EB011080687D
:100D10001870206800F5D87000EB0110806800F4AE
:100D20007F40000A5870206800F5D87000EB011071
:100D3000806800F47F00000C9870206800F5D8707F
:100D400000EB01108068000ED870206800F5D870A4
:100D500000E02FE000EB0110C0681871206800F57A
:100D6000D87000EB0110C06800F47F40000A587191
:100D7000206800F5D87000EB0110C06800F47F0017
:100D8000000C9871206800F5D87000EB0110C06865
:100D9000000ED87131B92068C06840F02000266884
:100DA000F06005E02068006940F0200026683061AE
:100DB00000205BE7606A40F480206062012055E714
:100DC0002DE9F05F04460025206846692068D0F8C8
:100DD0000490206887682068D0F80CA02068D0F8BC
:100DE00010B02068D0F8188006F00100002855D017
:100DF00007F00100C0B101202168886007F00200FF
:100E000018B1204600F009FB0EE007F0040010B115
:100E100045F4006508E007F0080010B145F480557E
:100E200002E0204600F0F8FA07F48070C8B14FF4F1
:100E300080702168886007F4007018B1204600F0C7
:100E4000EEFA0EE007F4806010B145F4005508E0BA
:100E500007F4006010B145F4804502E0204600F040
:100E6000DDFA07F48030C8B14FF480302168886023
:100E700007F4003018B1204600F0D3FA0EE007F472
:100E8000802010B145F4004508E007F4002010B1BF
:100E900045F4803502E0204600F0C2FA06F0080072
:100EA00038B10AF0100020B145F400751020216817
:100EB000C86006F0040040B10AF0080028B108201C
:100EC0002168C860204600F01DFA06F0020038B123
:100ED0002068C06800F0030010B1204600F014FA4A
:100EE00006F0400038B10BF0100020B145F48065E9
:100EF00010202168086106F0200040B10BF00800C6
:100F000028B1082021680861204600F053FA06F055
:100F1000100038B12068006900F0030010B12046CD
:100F200000F049FA06F4003040B109F0100028B191
:100F3000102021684860204600F03EFA06F4803018
:100F400040B109F0080028B1082021684860204617
:100F500000F068FA06F4004088B309F0040078B3A2
:100F600006F4807020B108F0010008B145F00105D9
:100F700006F4007020B108F0020008B145F0020547
:100F800006F4806020B108F0040008B145F00405C3
:100F900006F40060A0B108F0700088B108F070009D
:100FA000402817D006DC10280BD020280CD0302881
:100FB00019D10CE0502810D0602814D110E01DE0A9
:100FC00019E045F008050FE045F010050CE045F08C
:100FD000200509E045F0400506E045F0800503E006
:100FE00045F4807500E000BF00BF2068806920F0F4
:100FF0007000216888610420216848602DB1606A12
:10100000284360622046FFF71DFEBDE8F09F70B5E3
:1010100004460CB9012070BD94F8200010B9204698
:1010200000F0B0F82068006840F001002168086016
:1010300000F0D4FC05460DE000F0D0FC401B0A286F
:1010400008D9606A40F400306062052084F820000E
:101050000120E0E72068406800F001000028EBD0A4
:101060002068006820F002002168086000F0B6FCEB
:1010700005460DE000F0B2FC401B0A2808D9606A62
:1010800040F400306062052084F820000120C2E7AF
:101090002068406800F002000028EBD1207E012883
:1010A00006D12068006840F080002168086005E0F3
:1010B0002068006820F0800021680860607E0128B8
:1010C00006D12068006840F040002168086005E013
:1010D0002068006820F0400021680860A07E012898
:1010E00006D12068006840F020002168086005E013
:1010F0002068006820F0200021680860E07E012858
:1011000006D12068006820F010002168086005E022
:101110002068006840F0100021680860207F0128E6
:1011200006D12068006840F008002168086005E0EA
:101130002068006820F0080021680860607F0128AE
:1011400006D12068006840F004002168086005E0CE
:101150002068006820F0040021680860D4E90201DA
:10116000084321690843616908436168491E0843CF
:101170002168C86100206062012084F820000020FE
:1011800049E7000010B586B00446142101A8FFF716
:101190008FF956492068884249D155480068401C5B
:1011A000534908600846006801280FD100BF00209D
:1011B00000905048006840F000704E4908600846B2
:1011C000006800F00070009000BF00BF00BF00206A
:1011D000009048481038006840F008004549103930
:1011E00008600846006800F00800009000BF00BFDB
:1011F000032001900220029000200390032004901D
:101200000920059001A93C4800F0EEFA00220521D2
:10121000142000F0A7FC142000F094FC002205210B
:10122000152000F09FFC152000F08CFC5CE0334999
:101230002068884258D100BF002000902D480068E7
:1012400040F080602B4908600846006800F080602C
:10125000009000BF00BF26480068401C2449086079
:101260000846006801280FD100BF002000902148E7
:10127000006840F000701F4908600846006800F0F0
:101280000070009000BF00BF00BF00200090194810
:101290001038006840F0020016491039086008460E
:1012A000006800F00200009000BF00BF60200190C5
:1012B0000220029000200390032004900920059052
:1012C00001A90F4800F090FA00220521402000F00B
:1012D00049FC402000F036FC00220521412000F0AE
:1012E00041FC412000F02EFC06B010BD006400401F
:1012F0001400002040380240000C0240006800400A
:10130000000402407047000010B58AB0044601ABEB
:1013100003AA00212046FFF796FC0398A0F20120C3
:1013200008282DD2DFE800F004090E13181D22272B
:1013300001A9184804F094FA23E001A9164804F022
:101340008FFA1EE001A9154804F08AFA19E001A9F4
:10135000134804F085FA14E001A9124804F080FA59
:101360000FE001A9104804F07BFA0AE001A90F4838
:1013700004F076FA05E001A90D4804F071FA00E0E6
:1013800000BF00BF2068406940F00200216848614A
:101390000AB010BD084B0020124B00201C4B00204F
:1013A000264B0020304B00203A4B0020444B0020BD
:1013B0004E4B002070477047704770B5044694F854
:1013C0002000012822D1022084F820002068006833
:1013D00020F001002168086000F000FB05460DE0E8
:1013E00000F0FCFA401B0A2808D9606A40F400307B
:1013F0006062052084F82000012070BD20684068EC
:1014000000F001000028EBD16062F6E7606A40F46A
:10141000002060620120F0E7704770477047704716
:101420007047704770470000F8B5044600200090F0
:101430008C4800684FF41651B0FBF1F7A56D2E688B
:1014400094F85C1008208840304098B1206800680B
:1014500000F0040070B12068006820F004002168EA
:10146000086094F85C1008208840A860606D40F027
:101470000100606594F85C1001208840304068B13C
:101480002068406900F0800040B194F85C100120B1
:101490008840A860606D40F00200606594F85C10C0
:1014A00004208840304068B12068006800F00200E5
:1014B00040B194F85C1004208840A860606D40F052
:1014C0000400606594F85C1010208840304078B3C8
:1014D0002068006800F0080050B394F85C101020F9
:1014E0008840A8602068006800F4802080B12068EF
:1014F000006800F4002028B9206CC8B12046216C97
:10150000884715E0A06C98B12046A16C88470FE091
:101510002068006800F4807028B92068006820F016
:10152000080021680860206C10B12046216C8847B3
:1015300094F85C10202088403040002865D0206856
:10154000006800F0100000285FD094F85C102020A4
:101550008840A86094F83500052828D120680068E4
:1015600020F01600216808602068406920F08000A3
:1015700021684861206C08B9A06C28B12068006817
:1015800020F008002168086094F85C103F20884033
:10159000A860012084F8350000BF002084F83400E2
:1015A00000BF206D10B12046216D8847F8BD20682E
:1015B000006800F4802080B12068006800F40020FA
:1015C00028B9606C10B12046616C88471DE0E06B63
:1015D000D8B12046E16B884717E02068006800F426
:1015E000807068B92068006820F0100021680860E9
:1015F000012084F8350000BF002084F8340000BFCB
:10160000E06B10B12046E16B8847606D38B3606DC8
:1016100000F00100F0B1052084F835002068006872
:1016200020F001002168086000BF0098401C009075
:10163000B84200D905E02068006800F001000028E9
:10164000F3D100BF012084F8350000BF002084F8EA
:10165000340000BFE06C10B12046E16C884700BF49
:10166000A4E70000240000202DE9F04104460025F5
:1016700000F0B4F9074614B90120BDE8F081606AB2
:1016800000B100BF022084F8350000BF002084F8BC
:10169000340000BF2068006820F001002168086065
:1016A0000AE000F09BF9C01B052805D920206065E1
:1016B000032084F83500E0E72068006800F00100AE
:1016C0000028EED12068056821480540D4E90101D1
:1016D0000843E16808432169084361690843A16937
:1016E0000843E1690843216A08430543606A042806
:1016F00003D1D4E90B010843054320680560206845
:10170000456925F00705606A0543606A04280DD124
:10171000A06A0543E06A48B12046FFF7E7F828B120
:1017200040206065012084F83500A6E72068456107
:101730002046FFF7C1F8064694F85C103F20884029
:10174000B06000206065012084F83500002094E737
:101750003F8010F02DE9F04704460D4616461F461F
:101760004FF00008D4F8589000BF94F834000128D6
:1017700002D10220BDE8F087012084F8340000BFC8
:1017800094F83500012825D1022084F83500002086
:1017900060653B46324629462046FFF7FCF894F840
:1017A0005C103F208840C9F808002068006840F0BD
:1017B000160021680860206C28B12068006840F09D
:1017C0000800216808602068006840F00100216876
:1017D000086006E000BF002084F8340000BF4FF02E
:1017E00002084046C6E70000F8B502460B46002551
:1017F000002400200021D6E0012606FA01F51E682B
:1018000006EA0504AC4274D11E7906F00306012EE7
:1018100004D01E7906F00306022E13D190684F0003
:101820000326BE40B0434F00DE68BE4030439060A8
:10183000506801268E40B0431E79C6F300168E40D4
:10184000304350601E7906F00306032E09D0D0689D
:101850004F000326BE40B0434F009E68BE40304359
:10186000D0601E7906F00306022E13D1CF0802F1D4
:10187000200656F827004E07F70E0F26BE40B0434D
:101880004F07FF0E1E69BE403043CF0802F120060D
:1018900046F8270010684F000326BE40B0431E796B
:1018A00006F003064F00BE40304310605E6806F449
:1018B0004036002E76D000BF002600963C4E36689B
:1018C00046F480463A4F3E603E46366806F480460F
:1018D000009600BF00BF374E8F0856F827008E07CE
:1018E000370F0F26BE40B043334EB24202D100261E
:1018F00024E057E0314EB24201D101261EE0304EC5
:10190000B24201D1022619E02E4EB24201D1032685
:1019100014E02D4EB24201D104260FE02B4EB2420C
:1019200001D105260AE02A4EB24201D1062605E081
:10193000284EB24201D1072600E008268F073F0F4C
:10194000BE4030431B4E8F0846F82700224E3068B9
:10195000A0435E6806F4801606B120431E4E306038
:10196000361D3068A0435E6806F4001606B12043B9
:10197000194E361D3060184E361F3068A0435E6821
:1019800006F4003606B12043134E361F3060361F72
:101990003068A0435E6806F4803606B120430E4EE0
:1019A000083E3060491C1029FFF426AFF8BD000046
:1019B0004438024008380140000002400004024060
:1019C00000080240000C02400010024000140240D7
:1019D00000180240001C0240083C01400148006819
:1019E0007047000018000020034800680349097888
:1019F00008440149086070471800002020000020BA
:101A000010B50D48006840F400700B4908600846A6
:101A1000006840F4806008600846006840F4807008
:101A20000860032000F0DCF80F2000F007F800F059
:101A30005FF8002010BD0000003C02402DE9F0419D
:101A400088B004460027B84600BF00200190234814
:101A5000006840F48070214908600846006800F47E
:101A60008070019000BF00BF02A903A800F08EF9AA
:101A7000069F1FB900F0B2F9054602E000F0AEF98A
:101A800045001748B5FBF0F0A0F1010815481649CC
:101A9000086040F2E7311448C160C0F804800021BA
:101AA00001618160816100F061FC064696B90E48D3
:101AB00000F090FC06466EB92D2000F043F8102C83
:101AC00007D2002221462D2000F04CF80748046080
:101AD00000E00126304608B0BDE8F0814038024001
:101AE00040420F00002000409C0100201C0000200C
:101AF00008B500BF002000901148006840F4804005
:101B00000F4908600846006800F48040009000BF5C
:101B100000BF00BF00200090081F006840F0805008
:101B2000091F08600846006800F08050009000BF60
:101B300000BF00220F21901E00F014F808BD000025
:101B40004438024001460846002809DB00F01F0324
:101B500001229A4043099B0003F1E023C3F80021CE
:101B600000BF70472DE9F05F80460D4616460027FE
:101B700001F0E2FF074639462A46334601F00700E6
:101B8000C0F1070ABAF1040F02D94FF0040A01E0CC
:101B9000C0F1070AD14600F1040ABAF1070F02D2D8
:101BA0004FF0000A01E0A0F1030AD4464FF0010A09
:101BB0000AFA09FAAAF1010A0AEA020A0AFA0CFA6E
:101BC0004FF0010B0BFA0CFBABF1010B0BEA030B13
:101BD0004AEA0B042146404601F0B6FFBDE8F09FFB
:101BE00000BF00F00702064B19684FF6FF031940CB
:101BF000044B0B4343EA0221014B196000BF7047BD
:101C00000CED00E00000FA0570B504460D460CB975
:101C1000012070BD5848006800F00700A84209D2B2
:101C200055490D700846006800F00700A84201D031
:101C30000120EEE7207800F0020002281DD1207874
:101C400000F00400042805D14C48006840F4E0503E
:101C50004A490860207800F00800082805D1474864
:101C6000006840F46040454908604448006820F03E
:101C7000F000A168084341490860207800F00100A5
:101C8000A8B36068012807D13C4808380068C0F351
:101C90004040B8B90120BCE76068022802D0606803
:101CA000032807D1354808380068C0F3406048B9B8
:101CB0000120AEE7314808380068C0F3400008B999
:101CC0000120A6E72D48006820F003006168084362
:101CD0002A490860FFF782FE064609E0FFF77EFE0C
:101CE000801B41F28831884202D9032091E707E046
:101CF0002248006800F00C006168B0EB810FEDD164
:101D00001D48006800F00700A84209D91A490D7063
:101D10000846006800F00700A84201D0012078E7DB
:101D2000207800F00400042807D11448006820F44B
:101D3000E050E168084311490860207800F008008D
:101D4000082808D10D48006820F46040216940EA65
:101D5000C1000A49086000F061F808490968C1F348
:101D60000311074A515CC8400649086006480068EC
:101D7000FFF764FE00204CE7003C024008380240B8
:101D8000C8880008240000201C0000200F220260E8
:101D90000D4A126802F0030242600B4A126802F018
:101DA000F0028260084A126802F4E052C260064AF9
:101DB000126802F46042D2080261044A126802F01A
:101DC00007020A607047000008380240003C0240E9
:101DD00001480068704700002400002000B5FFF7AC
:101DE000F7FF04490968C1F38221034A515CC840E6
:101DF00000BD000008380240D888000800B5FFF791
:101E0000E7FF04490968C1F34231034A515CC84005
:101E100000BD000008380240D88800082DE9F047CE
:101E2000002400250026A1462548006800F00C008B
:101E300020B1042805D008283AD105E0DFF88490C5
:101E400039E0DFF8849036E01D48001F006800F09C
:101E50003F041B48001F006800F4800078B11A4856
:101E60001749091F0968C1F38811A0FB01700146D9
:101E7000224600233846FEF757FA05460EE0114881
:101E80000F49091F0968C1F38811A0FB01700146C1
:101E9000224600233846FEF747FA05460848001F49
:101EA0000068C0F30140401C4600B5FBF6F902E0B3
:101EB000DFF8109000BF00BF4846BDE8F087000083
:101EC000083802400024F40040787D01F8B504464B
:101ED0000CB90120F8BD207800F00100002874D072
:101EE000F948006800F00C0004280DD0F64800689E
:101EF00000F00C00082813D1F348001F006800F41C
:101F00008000B0F5800F0BD1EF4808380068C0F3AF
:101F10004040002859D06068002856D10120D9E7F8
:101F200000BF6068B0F5803F08D1E7480838006816
:101F300040F48030E449083908601EE06068B0F57C
:101F4000A02F0DD1E0480838006840F48020DE4919
:101F5000083908600846006840F4803008600CE0EA
:101F6000D9480838006820F48030D749083908601B
:101F70000846006820F48020086000BF606890B1C7
:101F8000FFF72CFD054606E0FFF728FD401B6428FF
:101F900001D903209EE7CC4808380068C0F34040D0
:101FA0000028F1D011E0FFF719FD054606E0FFF724
:101FB00015FD401B642801D903208BE7C24808386F
:101FC0000068C0F340400028F1D1207800F0020002
:101FD00002285FD1BC48006800F00C0058B1BA4834
:101FE000006800F00C0008281CD1B748001F0068EA
:101FF00000F48000B0B9B44808380068C0F340006D
:1020000020B1E068012801D0012063E7AE4808381C
:10201000006820F0F800216940EAC100AA490839A7
:10202000086037E0E06800B30120A8490860FFF7C6
:10203000D5FC054606E0FFF7D1FC401B022801D97C
:10204000032047E7A04808380068C0F34000002894
:10205000F1D09D480838006820F0F800216940EA76
:10206000C10099490839086014E0002097490860C8
:10207000FFF7B4FC054606E0FFF7B0FC401B022862
:1020800001D9032026E7904808380068C0F34000D3
:102090000028F1D1207800F0080008282CD16069D0
:1020A000A8B101208A490860FFF798FC054606E0C0
:1020B000FFF794FC401B022801D903200AE782485D
:1020C0006C300068C0F340000028F1D014E000201C
:1020D0007F490860FFF782FC054606E0FFF77EFCBB
:1020E000401B022801D90320F4E677486C300068D1
:1020F000C0F340000028F1D1207800F0040004284B
:1021000070D1002770483830006800F0805090B9D6
:1021100000BF002000906C483830006840F08050CC
:102120006949383108600846006800F08050009026
:1021300000BF00BF01276748006800F48070B0B995
:102140006448006840F4807062490860FFF746FC0C
:10215000054606E0FFF742FC401B022801D9032098
:10216000B8E65C48006800F480700028F2D000BF38
:10217000A068012808D154486830006840F0010088
:102180005149683108601DE0A06805280DD14E480E
:102190006830006840F004004B4968310860084628
:1021A000006840F0010008600CE0474868300068B3
:1021B00020F001004449683108600846006820F0BA
:1021C0000400086000BFA068A8B1FFF707FC05463F
:1021D00009E0FFF703FC401B41F28831884202D935
:1021E000032077E626E0384868300068C0F34000F6
:1021F0000028EED013E0FFF7F1FB054608E0FFF7FB
:10220000EDFB401B41F28831884201D9032061E691
:102210002D4868300068C0F340000028EFD1012F3E
:1022200007D129483830006820F0805026493831DD
:10223000086000BFA069002845D02348006800F06E
:102240000C0008285DD0A069022845D100201F4954
:102250000866FFF7C3FB054606E0FFF7BFFB401B20
:10226000022801D9032035E6174808380068C0F372
:1022700040600028F1D1D4E907010843616A40EACF
:1022800081110122A06AC2EB500041EA00412C20DA
:10229000005D41EA00600C49091F086001200B49FC
:1022A0000866FFF79BFB054606E0FFF797FB401B20
:1022B000022801D903200DE6034808380068C0F35E
:1022C00040600028F1D049E0083802400000474251
:1022D000800E474200700040002021490866FFF749
:1022E0007DFB054606E0FFF779FB401B022801D97C
:1022F0000320EFE51B480068C0F340600028F2D1DE
:102300002CE0A069012800D1E4E51648001D06680C
:10231000A069012820D006F48001E06981421BD128
:1023200006F03F01206A814216D147F6C070304066
:10233000616AB0EB811F0FD106F440310122A06A1F
:10234000C2EB5000B1EB004F06D106F070612C20BB
:10235000005DB1EB006F01D00120BBE50020B9E5C5
:1023600000004742003802407047704710B50446ED
:102370000CB9012010BD94F83D0028B9002084F864
:102380003C00204600F025F8022084F83D00211D85
:10239000206801F0F3F8012084F8460000BF84F8BB
:1023A0003E0001213F2001554020015541200155AB
:1023B00000BF00BF012084F84200432001554420A3
:1023C00001554520015500BF012084F83D00002043
:1023D000D0E77047014691F83D00012801D0012067
:1023E0007047022081F83D000868C06840F0010095
:1023F0000B68D8601A4B086898421BD00868B0F187
:10240000804F17D0174B0868984213D0164B0868B6
:1024100098420FD0154B086898420BD0144B0868AF
:10242000984207D0134B0868984203D0124B0868B3
:1024300098420CD10868806800F00702062A0CD088
:102440000868006840F001000B68186005E0086843
:10245000006840F001000B6818600020C0E7000031
:10246000000001400004004000080040000C004053
:10247000000401400040014000180040704710B5C2
:10248000044620680069C0F34000D8B12068C068E5
:10249000C0F34000B0B16FF0020021680861012074
:1024A00020772068806900F0030018B12046FFF70C
:1024B000E5FF05E0204600F0ADF8204600F0ABF85F
:1024C0000020207720680069C0F38000D8B1206820
:1024D000C068C0F38000B0B16FF0040021680861EB
:1024E000022020772068806900F4407018B12046EF
:1024F000FFF7C4FF05E0204600F08CF8204600F00E
:102500008AF80020207720680069C0F3C000D8B1A5
:102510002068C068C0F3C000B0B16FF00800216847
:102520000861042020772068C06900F0030018B11A
:102530002046FFF7A3FF05E0204600F06BF8204699
:1025400000F069F80020207720680069C0F30010CF
:10255000D8B12068C068C0F30010B0B16FF01000AF
:1025600021680861082020772068C06900F4407065
:1025700018B12046FFF782FF05E0204600F04AF838
:10258000204600F048F8002020772068006900F01D
:10259000010058B12068C06800F0010030B16FF050
:1025A000010021680861204600F036F820680069C3
:1025B000C0F3C01058B12068C068C0F3C01030B17B
:1025C0006FF08000216808612046FFF7CDFE20688B
:1025D0000069C0F3801058B12068C068C0F3801053
:1025E00030B16FF0400021680861204600F020F80B
:1025F00020680069C0F3401058B12068C068C0F37B
:10260000401030B16FF02000216808612046FFF7CC
:10261000ACFE10BD7047704710B5044603492068F2
:10262000884201D1FFF7E0F910BD00000020004012
:102630007047F8B504460E46174694F83E00202829
:1026400036D106B10FB90120F8BD00BF94F83C00A7
:10265000012801D10220F7E7012084F83C0000BFE7
:1026600020633A463146204601F0E4F90546EDB9CB
:10267000206B012819D100BF00200090206800685D
:10268000009020684068009000BF00BF00BF00BFFE
:1026900021680C3151E8001F41F0100021680C3115
:1026A00041E80002002AF3D100E001252846CBE7EB
:1026B0000220C9E770B504460D46214920688842CA
:1026C0003DD1204800781F49497840EA0120C0F3F5
:1026D0000A001D4908801B484078C01019498978B4
:1026E00040EA4110C0F30A00174948801548807835
:1026F00080111449C97840EA81001249097940EAF9
:102700008120C0F30A00104988800E4800794010EB
:102710000C49497940EAC110C0F30A000A49C8804F
:102720000848407900118008087206484079C0F3D3
:1027300001104872122203490448FFF77AFF70BD66
:1027400000480040924B0020884B0020F8000020F9
:10275000704710B504460CB9012010BDA06900B146
:1027600000E000BF94F83D0028B9002084F83C0048
:10277000204600F027F8242084F83D002068C06837
:1027800020F400502168C860204601F03DF8206820
:10279000006920F49040216808612068406920F0B9
:1027A0002A00216848612068C06840F40050216810
:1027B000C86000202064202084F83D0084F83E009A
:1027C0000020CAE710B586B00446142101A8FDF721
:1027D0006FFE2C492068884251D100BF0020009034
:1027E0002948006840F480202749086008460068AE
:1027F00000F48020009000BF00BF00BF00200090C8
:1028000021481038006840F004001F491039086062
:102810000846006800F00400009000BF00BF4FF4BD
:102820004060019002200290002003900320049059
:102830000720059001A91548FEF7D6FF1448154951
:1028400008604FF000604860002112488160C1605C
:102850004FF4806101610021416181614FF4807119
:10286000C1614902016200214162FEF7FDFE08B12B
:10287000FEF7A8F800BF0748A063846300BF06B056
:1028800010BD0000004800404038024000080240EF
:10289000286002403C0100207047704700BFFEE7FF
:1028A00010B50E480E4908600320486000210C480E
:1028B0008160C1604FF4C02101614FF4A00141610A
:1028C0000021017641768176C17601774177FEF766
:1028D0009EFB08B1FEF776F810BD000000640040D2
:1028E000A800002010B50E480E490860032048607B
:1028F00000210C488160C1604FF4C02101614FF498
:10290000A00141610021017641768176C17601778F
:102910004177FEF77CFB08B1FEF754F810BD0000CC
:1029200000680040D000002008B500BF00200090E3
:102930000A48006840F4001008490860084600682A
:1029400000F40010009000BF00BF002205210C2001
:10295000FFF708F90C20FFF7F5F808BD3038024002
:1029600010B5074A0021074803F022F8064908601D
:10297000064A0021064803F01BF80649086010BD0E
:1029800078880008D15800080C0000209C880008B6
:10299000215700081000002008B500BF002000905B
:1029A0002448006840F00200224908600846006898
:1029B00000F00200009000BF00BF00BF00200090A8
:1029C0000846006840F0010008600846006800F012
:1029D0000100009000BF00BF00BF0020009008462B
:1029E000006840F0080008600846006800F0080031
:1029F000009000BF00BF00BF0020009008460068A4
:102A000040F0040008600846006800F004000090F0
:102A100000BF00BF00BF002000900846006840F0E3
:102A2000800008600846006800F08000009000BF49
:102A300000BF08BD3038024010B50B480B49086094
:102A40000B484860002109488160C1604FF48061F3
:102A500001610421416100218161C161FFF779FEBB
:102A600008B1FDF7AFFF10BD00480040F80000209E
:102A7000A086010000BFFEE700BFFEE710B52DED08
:102A80000A8B0446B0EE408AF0EE608AB0EE419ABE
:102A900019EE100A05F0FCFD41EC1A0B18EE900A35
:102AA00005F0F6FD41EC1B0B18EE100A05F0F0FDE9
:102AB00041EC1C0BB0EE4A2AF0EE6A2AB0EE4B1A3B
:102AC000F0EE6B1AB0EE4C0AF0EE6C0A204600F005
:102AD0001FF82046FDF714FEBDEC0A8B10BD10B5A3
:102AE0002DED048B0446B0EE408AF0EE608AB0EE25
:102AF000419AB0EE491AF0EE680AB0EE480A204654
:102B000000F06AFA2046FDF735FEBDEC048B10BDDF
:102B100070B52DED108B8AB00446B0EE408AF0EE11
:102B2000608AB0EE419AF0EE619AB0EE42AAF0EE01
:102B300062AA9FEDFE0B01F01FF8B0EE40BAF0EE76
:102B400060BA51EC1B0B04F0D1FF054651EC1A0B97
:102B500004F0CCFF0646284605F09AFD41EC1F0B19
:102B6000B0EE4F0AF0EE6F0A01F06AFAB0EE40DA0A
:102B7000F0EE60DA304605F08BFD41EC1E0B53ECB5
:102B80001D2B05F08FFA41EC1C0B53EC192B05F0B3
:102B9000BDFB41EC1B0B9FEDE71BB0EE4B0AF0EECB
:102BA0006B0A01F0B1FA8DED040B284605F070FDBB
:102BB00041EC1F0BB0EE4F0AF0EE6F0A02F0C0F8C6
:102BC000B0EE40DAF0EE60DA304605F061FD41EC3F
:102BD0001E0B53EC1D2B05F065FA41EC1C0B53EC5E
:102BE000182B05F093FB41EC1B0B9FEDD21BB0EEB5
:102BF0004B0AF0EE6B0A01F087FA8DED020B9DEDAA
:102C0000040B53EC102B9DED020B51EC100B04F058
:102C10009FFFCDE906019DED060B02F0F5F88DED65
:102C2000080B9DED080B51EC100B04F05FFF2062C8
:102C3000284605F02DFD41EC1F0BB0EE4F0AF0EEDB
:102C40006F0A01F0FDF9B0EE40DAF0EE60DA3046DE
:102C500005F01EFD41EC1E0B53EC1D2B05F022FA76
:102C600041EC1C0B53EC192B04F072FF41EC1B0BD5
:102C70009FEDB01BB0EE4B0AF0EE6B0A01F044FA88
:102C80008DED020B284605F003FD41EC1F0BB0EE65
:102C90004F0AF0EE6F0A02F053F8B0EE40DAF0EEB1
:102CA00060DA304605F0F4FC41EC1E0B53EC1D2BB2
:102CB00005F0F8F941EC1C0B53EC182B05F026FB42
:102CC00041EC1B0B9FED9B1BB0EE4B0AF0EE6B0A29
:102CD00001F01AFA8DED000B9DED020B53EC102B59
:102CE0009DED000B51EC100B04F032FFCDE9040117
:102CF0009DED040B02F088F88DED060B9DED060BA3
:102D000051EC100B04F0E6FECDE908019DED080B37
:102D100051EC100B04F0EAFE6062284605F0B8FCA6
:102D200041EC1F0BB0EE4F0AF0EE6F0A01F088F98C
:102D3000B0EE40DAF0EE60DA304605F0A9FC41EC86
:102D40001E0B53EC1D2B05F0ADF941EC1C0B53ECA5
:102D5000192B04F0FDFE41EC1B0B9FED761BB0EE32
:102D60004B0AF0EE6B0A01F0CFF98DED020B28460D
:102D700005F08EFC41EC1F0BB0EE4F0AF0EE6F0A2F
:102D800001F0DEFFB0EE40DAF0EE60DA304605F03A
:102D90007FFC41EC1E0B53EC1D2B05F083F941EC3D
:102DA0001C0B53EC182B04F0D3FE41EC1B0B9FEDD6
:102DB000611BB0EE4B0AF0EE6B0A01F0A5F98DED48
:102DC000000B9DED020B53EC102B9DED000B51EC15
:102DD000100B04F0BDFECDE904019DED040B02F0E3
:102DE00013F88DED060B9DED060B51EC100B04F066
:102DF00071FECDE908019DED080B51EC100B04F0BC
:102E000075FEA062284605F043FC41EC1F0BB0EEB6
:102E10004F0AF0EE6F0A01F013F9B0EE40DAF0EE6F
:102E200060DA304605F034FC41EC1E0B53EC1D2BF0
:102E300005F038F941EC1C0B53EC192B05F066FA40
:102E400041EC1B0B9FED3B1BB0EE4B0AF0EE6B0A07
:102E500001F05AF98DED040B284605F019FC41EC00
:102E60001F0BB0EE4F0AF0EE6F0A01F069FFB0EEF3
:102E700040DAF0EE60DA304605F00AFC41EC1E0B59
:102E800053EC1D2B05F00EF941EC1C0B53EC182BE9
:102E900004F05EFE41EC1B0B9FED261BB0EE4B0ACF
:102EA000F0EE6B0A01F030F98DED020B9DED040B95
:102EB00053EC102B9DED020B51EC100B04F048FE6F
:102EC000CDE906019DED060B01F09EFF8DED080B8F
:102ED0009DED080B51EC100B04F008FEE0620020A1
:102EE0000DE004F1200101EB800191ED000ABDEE3F
:102EF000C00A10EE101A09B224F81010401C042861
:102F0000EFDB0E48B0F9020001EE100AB8EEC11A6C
:102F1000F0EE410AB4F9000001EE100AB8EEC11A51
:102F2000B0EE410A02F018FE0AE0000000000000C6
:102F30000000F03F0000000000000040084B0020AF
:102F4000A4F840002148B0F9020001EE100AB8EEE2
:102F5000C11AF0EE410AB4F9020001EE100AB8EE0F
:102F6000C11AB0EE410A02F0F7FD42210853184899
:102F7000B0F9020001EE100AB8EEC11AF0EE410AF3
:102F8000B4F9040001EE100AB8EEC11AB0EE410A1D
:102F900002F0E2FD442108530E48B0F9020001EEB0
:102FA000100AB8EEC11AF0EE410AB4F9060001EEBB
:102FB000100AB8EEC11AB0EE410A02F0CDFD46216A
:102FC00008530AB0BDEC108B70BD0000124B0020FE
:102FD0001C4B0020264B0020F0B52DED108B85B04A
:102FE0000446B0EE408AF0EE608AB0EE419A9FED62
:102FF000FE0B00F0C1FDB0EE40AAF0EE60AA51EC6D
:103000001A0B04F073FD054619EE106AB5EEC08A7E
:10301000F1EE10FA17D1F5EEC08AF1EE10FA12D1E6
:10302000B5EEC09AF1EE10FA0DD1002008E004F1DF
:10303000300131F81020283921F81020411CC8B285
:103040000428F4DBB4E1284605F022FB41EC1E0B1A
:10305000B0EE4E0AF0EE6E0A00F0F2FFB0EE40CA9B
:10306000F0EE60CA304605F013FB41EC1D0B53EC4B
:103070001C2B05F017F841EC1A0B18EE100A05F09E
:1030800007FB41EC1B0B53EC1A2B05F017FACDE9AB
:103090000201284605F0FCFA41EC1E0BB0EE4E0A88
:1030A000F0EE6E0A01F04CFEB0EE40CAF0EE60CADF
:1030B000304605F0EDFA41EC1D0B53EC1C2B04F0EF
:1030C000F1FF41EC1A0B18EE900A05F0E1FA41EC21
:1030D0001B0B53EC1A2B05F0F1F9CDE900019DED26
:1030E000021B9DED000B00F0B3FEB0EE40FAF0EED7
:1030F00060FA51EC1F0B04F0F9FC2061284605F042
:10310000C7FA41EC1E0BB0EE4E0AF0EE6E0A00F06C
:1031100097FFB0EE40CAF0EE60CA304605F0B8FA4C
:1031200041EC1D0B53EC1C2B04F0BCFF41EC1A0BC3
:1031300018EE100A05F0ACFA41EC1B0B53EC1A2BFD
:1031400005F0BCF9CDE90201284605F0A1FA41ECF1
:103150001E0BB0EE4E0AF0EE6E0A01F0F1FDB0EE7D
:1031600040CAF0EE60CA304605F092FA41EC1D0B01
:1031700053EC1C2B04F096FF41EC1A0B18EE900A4E
:1031800005F086FA41EC1B0B53EC1A2B04F0E0FC23
:10319000CDE900019DED021B9DED000B00F058FEF6
:1031A000B0EE40FAF0EE60FA51EC1F0B04F09EFC1A
:1031B000E061284605F06CFA41EC1E0BB0EE4E0AB9
:1031C000F0EE6E0A00F03CFFB0EE40CAF0EE60CACE
:1031D000304605F05DFA41EC1D0B53EC1C2B04F05E
:1031E00061FF41EC1A0B18EE100A05F051FA41ECA0
:1031F0001B0B53EC1A2B04F0ABFCCDE90201284663
:1032000005F046FA41EC1E0BB0EE4E0AF0EE6E0AE7
:1032100001F096FDB0EE40CAF0EE60CA304605F00F
:1032200037FA41EC1D0B53EC1C2B04F03BFF41EC37
:103230001A0B18EE900A05F02BFA41EC1B0B53EC1D
:103240001A2B05F03BF9CDE900019DED021B9DED28
:10325000000B00F0FDFDB0EE40FAF0EE60FA51EC2C
:103260001F0B04F043FC6061284605F011FA41ECA5
:103270001E0BB0EE4E0AF0EE6E0A00F0E1FEB0EE6C
:1032800040CAF0EE60CA304605F002FA41EC1D0B70
:1032900053EC1C2B04F006FF41EC1A0B18EE100A3D
:1032A00005F0F6F941EC1B0B53EC1A2B04F050FC23
:1032B000CDE90201284605F0EBF941EC1E0BB0EE1A
:1032C0004E0AF0EE6E0A01F03BFDB0EE40CAF0EEA1
:1032D00060CA304605F0DCF941EC1D0B53EC1C2BA9
:1032E00004F0E0FE41EC1A0B18EE900A05F0D0F95C
:1032F00041EC1B0B53EC1A2B04F02AFCCDE9000126
:103300009DED021B9DED000B00F0A2FDB0EE40FA1A
:10331000F0EE60FA51EC1F0B04F0E8FBA06100270F
:1033200020E004F1100000EB870090ED000ADFEDD3
:10333000300A20EE200A10EE101A084605F0A8F90F
:1033400041EC1B0B9FED2B0B53EC102B04F0BCFC42
:1033500041EC1A0B04F0CAFB04F1100141F82700FC
:10336000781CC7B2042FDCDB00201FE004F1100141
:1033700001EB800191ED000A9FED201AC0EE010AD9
:1033800004F1380131F9101000EE101AB8EEC00A3D
:103390009FED1B1A00EE810ABDEEC00A10EE101A56
:1033A0000AB204F1080121F81020401C0428DDDBDA
:1033B0001448008801EE100AB8EE411AF0EE410AF6
:1033C000B4F9080001EE100AB8EEC11AB0EE410AD5
:1033D00002F04AFBA4F848000B48008801EE100AEE
:1033E000B8EE411A12E00000000000000000F03FBB
:1033F000000034431F85EB51B81E09400000B44360
:1034000000000046304B00203A4B0020F0EE410A0D
:10341000B4F90A0001EE100AB8EEC11AB0EE410A82
:1034200002F022FB4A2108531548008801EE100AD9
:10343000B8EE411AF0EE410AB4F90C0001EE100AA0
:10344000B8EEC11AB0EE410A02F00EFB4C2108534F
:103450000C48008801EE100AB8EE411AF0EE410A5D
:10346000B4F90E0001EE100AB8EEC11AB0EE410A2E
:1034700002F0FAFA4E21085305B0BDEC108BF0BDF6
:10348000444B00204E4B002010B54FF0E020006967
:1034900004F0CAF8012801D003F014FD10BD0000AB
:1034A00000B593B0302107A8FDF702F8142102A857
:1034B000FCF7FEFF00BF002001902548006840F0A7
:1034C0008050234908600846006800F08050019051
:1034D00000BF00BF00BF002001901E48006840F4FC
:1034E00080401C4908600846006800F48040019054
:1034F00000BF00BF0220079001200A9010200B900F
:1035000002200D9000210E9108210F91A821109109
:10351000022111910421129107A8FEF7D7FC08B1EE
:10352000FDF750FA0F200290022003900020049033
:103530004FF4A05005904FF480500690052102A84A
:10354000FEF762FB08B1FDF73DFA13B000BD0000C5
:1035500040380240007000400348006840F47000AA
:10356000014908607047000088ED00E010B502488E
:10357000FEF785FF10BD00009C01002010B5026819
:10358000294B98420ED0B0F1804F0BD0274B984278
:1035900008D0274B984205D0264B984202D0264BA4
:1035A000984203D122F070024B681A431E4B984296
:1035B00020D0B0F1804F1DD01C4B98421AD01C4B2C
:1035C000984217D01B4B984214D01B4B984211D0F5
:1035D0001A4B98420ED01A4B98420BD0194B984276
:1035E00008D0194B984205D0184B984202D0184B7E
:1035F000984203D122F44072CB681A4322F0800330
:103600004C6943EA040202608B68C3620B68836200
:10361000054B984202D0084B984201D10B690363D5
:103620000123436110BD0000000001400004004080
:1036300000080040000C0040000401400040014030
:10364000004401400048014000180040001C0040B8
:103650000020004070B506460025B46B2068406924
:10366000C0F3C01594F83D00212805D125B10020F4
:10367000E084204600F0B4F820684069C0F380156B
:1036800094F83E00222805D125B10020E08520468F
:1036900000F070F8206C40F0100020642046FFF726
:1036A00057F870BD70B50546AC6B2868006800F42B
:1036B0008070002842D1E08500BF00BF21680C3136
:1036C00051E8001F21F4807021680C3141E80002AC
:1036D000002AF3D100BF00BF00BF2168143151E8B8
:1036E000001F21F001002168143141E80002002A86
:1036F000F3D100BF00BF00BF2168143151E8001FA3
:1037000021F040002168143141E80002002AF3D181
:1037100000BF202084F83E00206B01280ED100BF9E
:1037200000BF21680C3151E8001F21F01000216812
:103730000C3141E80002002AF3D100BF206B0128C0
:1037400004D1A18D2046FEF7B5FF02E02046FFF729
:10375000A3F870BD70B50546AC6B206B012805D190
:10376000A08D41082046FEF7A5FF02E02046FFF7A6
:1037700094F870BD00BF00BF02680C3252E8002F01
:1037800022F4907102680C3242E80013002BF3D14E
:1037900000BF00BF00BF0268143252E8002F22F0C1
:1037A00001010268143242E80013002BF3D100BF7C
:1037B000016B01290ED100BF00BF02680C3252E834
:1037C000002F22F0100102680C3242E80013002B97
:1037D000F3D100BF202180F83E1000210163704723
:1037E00000BF00BF02680C3252E8002F22F0C00177
:1037F00002680C3242E80013002BF3D100BF2021F5
:1038000080F83D10704700002DE9F84F044620680D
:10381000006920F44050E16808432168086121698B
:10382000A068084361690843E16908430090206883
:10383000C06849F20C618843009908432168C86058
:103840002068406920F44070A169084321684861FC
:1038500076492068884203D075492068884203D1A0
:10386000FEF7CCFA814602E0FEF7B8FA8146E0693D
:10387000B0F5004F6CD102206168A0FB01500346F7
:103880001920A9FB007001462A463846FCF74CFD7A
:103890006421B0FBF1F04FEA001A02206168A0FB3E
:1038A00001510B461920A9FB00712A463846FCF746
:1038B0003BFD834602206168A0FB015003461920AE
:1038C000A9FB00712A463846FCF72EFD6421B0FBA7
:1038D000F1F000EBC00101EB0010ABEB80003221F6
:1038E00001EBC0006421B0FBF1F000F0F8000AEB3E
:1038F000400A02206168A0FB015003461920A9FB81
:10390000007001462A463846FCF70EFD8346022029
:103910006168A0FB015003461920A9FB00712A46EB
:103920003846FCF701FD6421B0FBF1F000EBC0016B
:1039300001EB0010ABEB8000322101EBC0006421F1
:10394000B0FBF1F000F007005044216888606AE0A5
:1039500004206168A0FB015003461920A9FB0070F8
:1039600001462A463846FCF7DFFC8246042061689F
:10397000A0FB015003461920A9FB007001462A460E
:103980003846FCF7D1FC6421B0FBF1F000EBC0013C
:1039900001EB0010AAEB8000322101EB0010642142
:1039A000B0FBF1F000F0F00A04206168A0FB0170A8
:1039B00003461920A9FB00513A462846FCF7B4FCFF
:1039C0006421B0FBF1F00AEB001A04206168A0FB4F
:1039D00001510B461920A9FB00712A463846FCF715
:1039E000A3FC834604206168A0FB01500346192014
:1039F000A9FB007001462A463846FCF795FC642175
:103A0000B0FBF1F000EBC00101EB0010ABEB80006C
:103A1000322101EB00106421B0FBF1F000F00F0047
:103A2000504421688860BDE8F88F00000010014014
:103A30000014014077B581B0044615460298A06293
:103A4000A58500202064222084F83E002A48A16B2E
:103A5000C8632A48A16B08642948A16BC864002088
:103A6000A16B086502AE32682368191D2B46A06B56
:103A7000FDF770FE00BF00200090206800680090F5
:103A800020684068009000BF00BF00BF002084F89D
:103A90003C0000BF206970B100BF00BF21680C313D
:103AA00051E8001F41F4807021680C3141E80002A8
:103AB000002AF3D100BF00BF00BF2168143151E8D4
:103AC000001F41F001002168143141E80002002A82
:103AD000F3D100BF00BF00BF2168143151E8001FBF
:103AE00041F040002168143141E80002002AF3D17E
:103AF00000BF002004B070BDA5360008553700088F
:103B00005536000800BFFEE703B401984100009855
:103B100050EAC12018BF04204A0D18BF40F0010030
:103B200040F2FF72B2EB515F08BF40F00200012883
:103B300008BF052002B0704702480068C0F30220A9
:103B4000704700000CED00E010B5002804DB0A0708
:103B5000130E054A135406E00A07140E034A00F038
:103B60000F031B1FD45410BD00E400E018ED00E06B
:103B7000EFF305807047000070B59B482DED020BF8
:103B80002DED068B079D25F00044A04218DC9748D8
:103B9000844202DC0AD1069840B19DED060BBDECD3
:103BA000068B02B0BDE8704001F06EBD002DCCBFA9
:103BB0009FED8F0B9FED900BBDEC068B02B070BD9F
:103BC0008F48A04215DD8F48A042D8BF4FF0FF3488
:103BD00058DD9DED060B51EC100BFFF795FF042807
:103BE00008BF01F085FD9DED060BBDEC068B02B014
:103BF00070BD9DED060B51EC100B01F025FECDE9DB
:103C0000060181489FED828BA0423CDD8248A042A4
:103C10001FDD00249FED82AB9DED060B53EC1A2BAC
:103C200051EC100B03F094FF9DED060B41EC190BCA
:103C300053EC1A2B51EC100B04F034FA53EC182B04
:103C400004F03CFC53EC192B04F03EF8CDE90601DE
:103C500049E09DED060B012453EC182B51EC100BA1
:103C600003F076FF9DED060B41EC190B53EC182B7E
:103C700051EC100B04F022FC53EC192B04F024F847
:103C8000CDE906012FE06848A0421FDD02249FED28
:103C9000689B9DED060B53EC192B51EC100B04F0B7
:103CA00001FA53EC182B03F053FF9DED060B41EC8A
:103CB000180B53EC192B51EC100B04F0FFFB53ECD9
:103CC000182B04F001F8CDE906010CE09DED060B80
:103CD000032453EC102B9FED580B51EC100B03F009
:103CE000F3FFCDE906019DED060B53EC102B51ECD3
:103CF000100B04F0D7F941EC180B53EC182B04F01F
:103D0000D1F941EC190B4E480621B0EE490AF0EE0C
:103D1000690A784401F08CFB53EC182B51EC100B22
:103D200004F0C0F941EC180B4648B0EE490AF0EE39
:103D3000690A0521784401F07BFB53EC192B51EC07
:103D4000100B04F0AFF941EC100B51EC180B53ECD5
:103D5000102B002C0EDA03F0FBFE9DED061B53EC3E
:103D6000112B04F09FF99DED061B53EC112B04F071
:103D7000CDFA35E003F0ECFE9DED061B53EC112B64
:103D800004F090F941EC100B2F48784400EBC4008C
:103D900090ED001B51EC100B53EC112B04F08EFB3B
:103DA0009DED061B53EC112B04F088FB41EC100B2E
:103DB0002648784400EBC40090ED001B51EC100B3A
:103DC00053EC112B04F0A2FA41EC100B002DA2BF12
:103DD000BDEC068B02B070BD51EC100B03F07AFE07
:103DE00041EC100B01E70000000010440000F07FE0
:103DF000182D4454FB21F93F182D4454FB21F9BFE1
:103E00000000DC3F0000203E0000F33F0000000007
:103E1000000000000000F03F0000E63F000000004E
:103E2000000000000000004000800340000000008F
:103E3000000000000000F83F000000000000F0BF9C
:103E4000324C0000E84B0000724B00002A4B00008F
:103E500070B56B4E2DED040B2DED028B82B0DDF8AD
:103E60001CC0DDE905235C422CF000411C4341EA03
:103E7000D474049D22F00040B44205D86C422C4317
:103E800040EAD474B4420BD99DED061B9DED040BA2
:103E900002B0BDEC028B04B0BDE8704001F0FEBB87
:103EA000ACF14054A4F17F641C430BD0022404EA1B
:103EB000AC7444EAD27405439FED538B9FED542BB1
:103EC00007D015E09DED040B51EC100B01F020FC28
:103ED00042E0002C11BF012C9DED040B02B0BDECA3
:103EE000028B04BF04B070BD022C38D0032C3BD031
:103EF0000B439FED491B9FED4A0B0AD0B14218D1ED
:103F0000B04209D121F0804120F080400791059016
:103F10000FE0002A15DA10E0434B7B44002C08BF69
:103F200093ED000B0DD0012C10D0022C17D0032CD8
:103F30001AD0B0421DD1002A03DAB0EE410AF0EEE9
:103F4000610A02B0BDEC028B04B070BD93ED000BB2
:103F500051EC100B03F0BEFD41EC100BF1E7B0EE9D
:103F6000480AF0EE680AECE7B0EE420AF0EE620AA8
:103F7000E7E7401A00153C28C8BF8DED000B19DC9F
:103F8000BCF1000FBEBF10F13C0F9FED290B8DED72
:103F9000000B0FDB9DED060B53EC102B9DED040B7E
:103FA00051EC100B03F090FE01F04EFC01F0B0FB61
:103FB000CDE90001002C08BF9DED000BC1D0012C04
:103FC00010D0022C9FED1C0B53EC102B9DED000B21
:103FD00051EC100B0DD004F071FA53EC182B04F0D7
:103FE0006DFAB9E7019880F0004001909DED000B5B
:103FF000A7E704F063FA53EC182B04F087F9ABE75A
:104000000000F07F00000000182D4454FB210940FF
:10401000182D4454FB2109C0182D4454FB21F9BF2D
:10402000182D4454FB21F93F124B00000000000002
:104030000000000000000000075C143326A6A13C2D
:1040400010B52F499FED2C1B2DED020B84B0059868
:1040500020F000408842D8BF9DED040B2DDD29499A
:10406000884209D1049840B94FF00100FCF74FFA9B
:1040700001F01EFB06B010BD05DB9DED040B01F049
:1040800003FB06B010BD68469DED040B00F0FCFE7E
:1040900010F0030004BF9DED021B9DED000B0CD042
:1040A00001280ED09DED021B9DED000B022817D0BC
:1040B000012001F039FA06B010BD01F001F906B097
:1040C00010BD9DED021B9DED000B012001F02CFAAF
:1040D00051EC100B03F0FEFC06B041EC100B10BDD0
:1040E00001F0EEF851EC100B03F0F4FC06B041ECDB
:1040F000100B10BD000000000000000000000000D8
:10410000FB21E93F0000F07F2DE9F04D2DED040B80
:104110002DED0C8B96B0DDE92350259CDDF888A0B1
:1041200025F0004624F00048BAF1000F14BF012129
:10413000002101EB4502FE4953184A1093422AD34D
:10414000002814BF0123002303EB44030B44F94967
:104150008B4220D358EA00019FEDF78B6FD0DFF838
:10416000E0B35D4503D1BAF1000F05D187E0BAF1A4
:10417000000F08BF002100D0012101EB450111F51E
:10418000001F08D8002814BF0121002101EB4401C1
:1041900011F5001F0BD99DED241B9DED220B16B0D0
:1041A000BDEC0C8B04B0BDE8F04D01F077BA0027F0
:1041B000002DBCBFE349884521DAE3498845A8BF03
:1041C00002271CDAC3451ADCE04901EB2851142907
:1041D00008DDC1F1340220FA02F101FA02F2824252
:1041E0000DD108E058B9C1F1140228FA02F101FA20
:1041F00002F2424503D101F00101C1F1020756EA82
:104200000A011DD1002C1BDA002D18BF022F01D08E
:10421000012F0AD00220FCF77AF916B0BDEC0C8B06
:1042200004B0BDE8F04D01F017BA0220FCF76FF9B9
:1042300001F012FA51EC100B03F04CFC83E01EE08D
:104240009FEDC39B9FEDC4AB002872D1BD48804554
:104250002DD105F1804010F5801008BFBAF1000F94
:104260000DD0B34515DC002CA1BF9DED240B16B07D
:10427000BDEC0C8B04B0A8BFBDE8F08D12E0B0EE31
:10428000480AF0EE680A16B0BDEC0C8B04B0BDE82D
:10429000F08D002C06DA9DED240B51EC100B03F091
:1042A00019FC50E0AE48784490ED000BEBE7D845A0
:1042B0004FD1002C4ADA2EB186423BD1BAF1000F21
:1042C00044D126E0BAF1000F13D00220FCF71FF909
:1042D00001F0FEF98DED020B9DED220B8DED000B33
:1042E00010EE900A039961F31E0003909DED020BFE
:1042F000C9E78DED029B9DED220B19EE901A10EE91
:10430000900A8DED000B61F31E0003909DED020BF2
:10431000B9E78DED02AB9DED220B1AEE901A10EE6F
:10432000900A8DED000B61F31E0003909DED020BD2
:10433000A9E729E00ADA9DED220B51EC180B53ECAA
:10434000102B03F0C1FC41EC100B9CE79DED220B00
:1043500099E7864218DAB4F1804F0DD0A4F10050ED
:10436000B0F1FF5010D1002D0EDB9DED220B51EC72
:10437000100B02F00BFAE6E79DED220B53EC102B2D
:1043800051EC100B00F0AEBC9DED220B51EC100B6C
:1043900001F05AFABAF1000FCDE90C0134D19FEDCA
:1043A000720BDEB1A6F1E040B0F17F602CD1002DA0
:1043B00001DD002C0DDA002D01DD002C1FDB002DAE
:1043C00016DA002C14DB012F08BF9FED690B3FF4B8
:1043D0005AAFB0EE490AF0EE690A54E7022F18BF4F
:1043E000002D0CD0012F0AD1002DFFF64CAF06E0B6
:1043F000002DB8BF002C07DA012F3FF444AFB0EE18
:104400004A0AF0EE6A0A3EE7012000EBE57A5AEA32
:1044100007000CD05848002580457CDD5749584896
:10442000884514DDB0420DDB002C19DB2BE00120A8
:10443000FCF76DF816B0BDEC0C8B04B0BDE8F04D88
:1044400001F036B9B34502DC002C09DC1BE08642E2
:1044500002DA002C17DA03E05E4527DD002C12DDBE
:104460000220FCF754F801F033F910EE901A19EE1F
:10447000900A8DED020B8DED009B61F31E00039001
:104480009DED020BFFE60220FCF741F801F030F948
:1044900010EE901A18EE900A8DED020B8DED008B48
:1044A00061F31E0003909DED020BECE69DED220BE7
:1044B00053EC182B51EC100B04F000F89FED320B6D
:1044C000CDE90A0153EC102B9DED0A0B51EC100BBA
:1044D00003F0E8FD9FED2E1B53EC112B03F016FFAC
:1044E0009DED0A1B53EC112B03F0DCFD9FED2A1B05
:1044F00053EC112B03F00AFF9DED0A0B41EC190B55
:1045000053EC102B51EC100B03F0CCFD53EC192B9A
:1045100003F0C8FD00E07EE09FED210B41EC1A0B9B
:1045200053EC102B9DED0A0B51EC100B3CE00000FE
:10453000FFFF1F00FFFF0F00000000000000F03F22
:104540000000F03F0000F07F0000404301FCFFFF4F
:10455000000000000000F07F0000000000000000EC
:1045600086470000000000000000000000000080FE
:10457000000000000000F0FF0000E0410000F043F8
:10458000FFFFEF3F00000000000000000000D03FF0
:10459000555555555555D53F000000000000E03FEA
:1045A000000000604715F73F03F07CFD41EC190B5C
:1045B0009FEDFD0B51EC1A0B53EC102B03F072FD29
:1045C00041EC1A0B9FEDFA0B53EC102B9DED0A0BEF
:1045D00051EC100B03F066FD53EC1A2B03F06EFF49
:1045E00041EC1A0B51EC190B53EC1A2B03F0B0FAF7
:1045F0000690CDE906519DED060B53EC192B51ECBD
:10460000100B03F05BFF53EC1A2B03F07FFE41EC21
:10461000100B00F09FB90020B6F5801F0EDA9FED59
:10462000E60B53EC102B9DED0C0B51EC100B03F033
:1046300039FDCDE90C016FF034000E4600EB265039
:10464000A0F2FF38C6F31300DD4940F07F6646F064
:1046500040568842D8BF002409DDDA498142C8BFEC
:10466000012404DC0024A6F5801608F10108D648D0
:10467000784400EBC4000D9690ED00BB9DED0C0B53
:1046800053EC1B2B51EC100B03F018FF9DED0C0BA2
:1046900041EC1A0B53EC1B2B51EC100B03F058FAA6
:1046A00041EC100B51EC180B53EC102B03F00CFBEE
:1046B00041EC1C0B51EC1A0B53EC1C2B03F0F2FCDD
:1046C00041EC190BC1488DED109B7844109590ED8D
:1046D000000B4FF0005040EA660000EB84408DED87
:1046E0000A0B00F500200B909DED0A0B53EC1B2BE1
:1046F00051EC100B03F0E2FE9DED0C1B53EC112B63
:1047000003F004FE41EC100B53EC102B9DED100B4D
:1047100051EC100B03F0C6FC9DED0A0B41EC1B0B9A
:1047200053EC102B9DED100B51EC100B03F0BAFC69
:1047300053EC1A2B03F0EAFD53EC1B2B03F0BEFEE7
:1047400053EC1C2B03F0AEFC41EC1B0B53EC192B70
:1047500051EC190B03F0A6FC41EC1A0B9C48062106
:10476000B0EE4A0AF0EE6A0A784400F061FEB0EE5C
:1047700040CAF0EE60CA53EC1A2B51EC1A0B03F04E
:1047800091FC53EC1C2B03F08DFC9DED100B41ECC8
:104790001A0B53EC192B51EC100B03F0D9F953EC15
:1047A0001B2B03F07FFC53EC1A2B03F0D1F99DED8A
:1047B000100B41EC1A0B53EC102B51EC100B03F0C7
:1047C00071FC41EC1C0B9FED84DB53EC1D2B03F0C3
:1047D000BFF953EC1A2B03F0BBF90A90CDE90A514B
:1047E0009DED0A0B53EC1D2B51EC100B03F066FEF4
:1047F00053EC1C2B03F062FE53EC1A2B03F086FDE6
:104800009DED0A0B41EC1C0B53EC102B9DED100B96
:1048100051EC100B03F046FC41EC1A0B53EC192B36
:1048200051EC1C0B03F03EFC9DED0A0B41EC190B07
:1048300053EC102B51EC1B0B03F034FC53EC192BF5
:1048400003F086F941EC190B51EC1A0B53EC192BC0
:1048500003F07EF91090CDE910519DED100B53EC53
:104860001A2B51EC100B03F029FE53EC192B03F01B
:104870004DFD41EC190B9FED5A0B53EC102B9DEDA8
:10488000100B51EC100B03F00DFC41EC1A0B9FEDDB
:10489000560B51EC190B53EC102B03F003FC41ECBD
:1048A000190B9FED530B53EC102B9DED100B51EC9E
:1048B000100B03F0F7FB53EC192B03F049F941EC13
:1048C000100B4D48784400EBC40090ED001B51ECF8
:1048D000100B53EC112B03F03BF941EC190B404644
:1048E00003F079FBCDE90A0153EC192B51EC1A0BBB
:1048F00003F02EF941EC100B4048784400EBC40063
:1049000090ED00BB51EC100B53EC1B2B03F020F986
:104910009DED0A1B53EC112B03F01AF90690CDE91B
:1049200006519DED0A0B53EC102B9DED060B51EC3F
:10493000100B03F0C3FD53EC1B2B03F0BFFD53EC36
:104940001A2B03F0BBFD53EC192B03F0DFFC41ECF9
:10495000100B00BF781EB0EE48AAF0EE68AA5AEA23
:10496000000008BF9FED268B9DED241B53EC102B00
:104970008DED001B00959DED240B51EC100B03F009
:1049800091FB9DED000B41EC190B53EC102B9DEDB1
:10499000240B51EC100B03F091FD9DED061B53EC25
:1049A000112B03F07FFB2FE0FE822B654715F73FAD
:1049B00044DF5DF80BAE543E0000000000004043B1
:1049C0008E9803007AB60B00044300006243000097
:1049D0003C42000000000000000000000000084011
:1049E000000000E009C7EE3FFD033ADC09C7EE3FD7
:1049F000F5015B14E02F3EBED04000008A4000006D
:104A0000000000000000F0BF53EC192B03F0A0F8E9
:104A10009DED060B41EC190B53EC102B9DED000B9B
:104A200051EC100B03F03EFBCDE910019DED100B96
:104A300051EC190B53EC102B03F08AF8CDE902016D
:104A40000C46AB498C422FDB611A084318D19DED0F
:104A5000100B53EC102B9DED020B51EC100B03F0DF
:104A60002DFD41EC1B0B9FEDA40B51EC190B53ECEE
:104A7000102B03F06DF853EC1B2B03F011FC2DD21F
:104A80000220FBF744FD00F023FE10EE901A18EE12
:104A9000900A8DED020B8DED008B61F31E000390EB
:104AA0009DED020BFFF7EFBB954A24F000419142C8
:104AB00014D39449214408437FF4E5AC9DED100BD9
:104AC00053EC102B9DED020B51EC100B03F0F6FC98
:104AD00053EC192B03F0E4FB7FF6D5AC24F0004037
:104AE00089498A4A002601EB205182422BDA481C70
:104AF0004FF4801121FA00F02044854AC0F30A5196
:104B00007A44A1F2FF3192ED000B824A8DED0A0B3F
:104B1000CA4020EA0202C0F3130040F48010C1F141
:104B2000140120FA01F60B92002CB8BF76429DEDDD
:104B30000A0B53EC102B9DED100B51EC100B03F0F6
:104B4000BDFCCDE910019DED100B51EC190B53ECA0
:104B5000102B02F0FDFF9FED700B0A90CDE90A517A
:104B600053EC102B9DED0A0B51EC100B03F09AFA4D
:104B700041EC1B0B9FED6A0B53EC102B9DED0A0BC8
:104B800051EC100B03F08EFA9DED100B41EC1C0B59
:104B900053EC102B9DED0A0B51EC100B03F08EFC27
:104BA00053EC192B03F0B2FB9FED5F1B53EC112B61
:104BB00003F078FA53EC1C2B02F0CAFF41EC190BFE
:104BC00051EC1B0B53EC192B02F0C2FFCDE9020193
:104BD0009DED020B53EC1B2B51EC100B03F06EFC04
:104BE00053EC192B03F092FB9DED020B41EC190BDA
:104BF00053EC102B51EC100B03F054FACDE90A01E1
:104C00004B489DED0A0B0521784400F011FC9DED09
:104C10000A1B51EC100B53EC112B03F043FA9DEDE2
:104C2000021B53EC112B03F071FBCDE906019DED46
:104C3000020B53EC192B51EC100B03F033FA53EC2D
:104C4000192B02F085FF9FED3C0B41EC190B53EC47
:104C5000102B9DED060B51EC100B03F02FFC9DED7E
:104C6000060B41EC1B0B53EC102B9DED020B51EC92
:104C7000100B03F017FA53EC1B2B03F025F853EC41
:104C8000192B03F01BFC9DED021B53EC112B03F0C1
:104C900015FC53EC1A2B03F039FBCDE9020101EBB3
:104CA000065001150029C8BF039015DC9DED020BCD
:104CB000324651EC100B03F098FDFEF725FF042857
:104CC00008BF00F015FD32469DED020B51EC100BB4
:104CD00003F08BFDCDE902019DED020B51EC180BA9
:104CE00053EC102B03F0DEF9FFF72DBB00000000A2
:104CF0000000904000000000FE822B654715973CA5
:104D000000CC904000346F3F01FCFFFF0000E03F0B
:104D10002C3F0000FFFF0F0000000000432EE63F85
:104D2000396CA80C615C20BEEF39FAFE422EE63FDA
:104D3000CC3D00000000000000000000000000402A
:104D400010B52F499FED2C1B2DED020B84B005985B
:104D500020F000408842DCBF00209DED040B32DDD6
:104D60002849884209D1049840B94FF00100FBF767
:104D7000CEFB00F09DFC06B010BD05DB9DED040BE5
:104D800000F082FC06B010BD68469DED040B00F0FB
:104D90007BF810F0030011D0012818D09DED021B04
:104DA0009DED000B02281AD000F08AFA51EC100B8E
:104DB00002F090FE06B041EC100B10BD9DED021B01
:104DC0009DED000B012000F0AFFB06B010BD9DED86
:104DD000021B9DED000B00F073FA06B010BD012020
:104DE00000F0A2FB51EC100B02F074FE06B041EC97
:104DF000100B10BD000000000000000000000000CB
:104E0000FB21E93F0000F07F00B52DED048BB0EEF3
:104E1000409AF0EE609A83B051EC190B03F082FADD
:104E200041EC180B18EE100A18EE901A8DED008B5D
:104E3000002818BF0120084320F00040C0F17F6027
:104E400000F1E040C00F14D019EE101A19EE900ACC
:104E50008DED009B002918BF0121084320F0004080
:104E6000C0F17F6000F1E040C00F04BF0120FBF7FC
:104E70004EFBB0EE480A03B0F0EE680ABDEC048BBE
:104E800000BD0000000000002DE9F14F04462DEDAB
:104E9000020B2DED088B8AB09FEDE70B80ED020B26
:104EA000139EE74826F0004585420ADC9DED120B73
:104EB000002084ED000B0AB0BDEC088B03B0BDE808
:104EC000F08FE0489FEDE0AB9FEDE1BBA84247DDEE
:104ED000E14F9FEDE39B9FEDE48B9DED120B53ECB7
:104EE0001A2B51EC100B002E1CDD03F0E7FA41ECFD
:104EF000100BBD4208D053EC1B2B51EC100B03F0F0
:104F0000DDFAC4E900010BE053EC192B51EC100B56
:104F100003F0D4FA53EC182B03F0D0FAC4E90001E3
:104F20000120C8E702F014FE41EC100BBD4208D08E
:104F300053EC1B2B51EC100B02F00AFEC4E90001EC
:104F40000BE053EC192B51EC100B02F001FE53EC6B
:104F5000182B02F0FDFDC4E900014FF0FF30AAE775
:104F6000C348A84279DB9DED120B51EC100B00F009
:104F70006BFC41EC180B9FEDC00B53EC102B03F0B6
:104F800091F89FEDBF1B53EC112B02F0E1FD02F0F5
:104F9000F3FF074603F01FF841EC190B53EC1A2BF3
:104FA00003F080F853EC182B03F0B0F941EC180B28
:104FB00053EC1B2B51EC190B03F074F8DFF8C8A26B
:104FC00041EC100B4FEA15580125FA4453EC102B15
:104FD00051EC180B03F072FA032DC4E900013DD027
:104FE000C1F30A5005EB4511A8EB000011398142CD
:104FF00034DA0AEB051BB0EE48AA9BED000BF0EE8D
:1050000068AA53EC102B51EC190B03F04BF841EC50
:105010001B0B51EC1A0B53EC1B2B03F04FFA41EC1A
:10502000180B51EC1A0B53EC182B03F047FA53EC06
:105030001B2B03F043FA9BED020B41EC1A0B53ECD4
:10504000102B51EC190B03F02DF853EC1A2B03F035
:1050500035FA41EC100B6D1CB8E70EE0002EA8BF2E
:105060003846BFF628AF94ED000B51EC100B02F060
:1050700031FDC4E9000178421DE7C6F3130040F496
:10508000801EC6F30A50A0F2F530471100F01F054C
:10509000C5F12000DDF848B0089000200690079088
:1050A0000520EC467949002D07EB0002794408BF42
:1050B00051F8221009D051F8223001EB8201AB40A7
:1050C0004A68089922FA01F11943A1FB0E26A1FBB7
:1050D0000B131A449A4234BF0123002303EB060842
:1050E0000CEB8003D3E901A60E448E4234BF0121AC
:1050F000002192448A4411B1924502D903E09245BD
:1051000001D2012100E00021C3E901A641444CF88D
:105110002010011EA0F10100C4DC029800F1005033
:10512000850F0298DDE903678000DDF8148002F046
:1051300052FF41EC1A0B304602F064FF9FED541B06
:1051400053EC112B02F0AEFF41EC1B0B384602F082
:1051500059FF9FED511B53EC112B02F0A3FF41ECC3
:10516000180B404602F04EFF9FED4D1B53EC112BE8
:1051700002F098FF41EC190B51EC180B53EC192B72
:1051800002F0E6FC53EC1B2B02F0E2FC53EC1A2B72
:1051900002F0DEFCCDE90801002008909DED080B2F
:1051A00053EC1A2B51EC100B03F088F953EC1B2B2A
:1051B00003F084F953EC182B03F080F953EC192B0E
:1051C00003F0A4F89FED381B53EC112B02F06AFF9B
:1051D0009FED370B41EC180B53EC102B9DED080B9A
:1051E00051EC100B02F05EFF53EC182B02F0B0FCF8
:1051F0009FED310B41EC180B53EC102B9DED080B80
:1052000051EC100B02F04EFF53EC182B02F0A0FCF7
:1052100041EC100B139810F0004F06D06D4251EC8A
:10522000100B02F057FC41EC100B284684ED000BEC
:1052300041E6000000000000000000000000000047
:10524000FB21E93F7CD9024000004054FB21F93F9B
:105250003163621A61B4D03DFB21F93F00000000C8
:105260000000601A61B4D03D7370032E8A19A33B0D
:10527000FB2139410000000083C8C96D305FE43F65
:10528000000000000000E03F6A3A0000B83900006A
:10529000000000000000103E000000000000103C74
:1052A000000000000000103A182D4454FB21F93D85
:1052B0003326A611460B113C00000054FB21F93D9A
:1052C00010B52DED040B2DED088B82B0B0EE419A98
:1052D000F0EE619A0B9820F000449FED4BABB4F1D7
:1052E000795F11DA9DED0A0B51EC100B02F044FED0
:1052F000002801BFB0EE4A0AF0EE6A0A02B0BDEC27
:10530000088B04BF04B010BD9DED0A0B53EC102BAD
:1053100051EC100B02F0C6FE41EC180B3C48062184
:10532000B0EE480AF0EE680A784400F081F853ECD9
:10533000182B51EC100B02F0B5FE9DED0A0B41EC61
:105340001B0B53EC192B51EC100B02F0ABFE41EC94
:10535000190B53EC1B2B51EC180B02F0A3FE53EC72
:10536000192B03F0ABF89FED2C0B41EC190B53EC10
:10537000102B51EC180B02F095FE41EC100B284855
:10538000844210DA53EC192B51EC100B03F096F811
:1053900053EC1A2B02F0BAFF41EC100B02B0BDEC3B
:1053A000088B04B010BD1F48A042BCBF9FED1E1B60
:1053B0008DED001B06DBA4F500100190002000908D
:1053C0009DED001B51EC100B53EC112B03F076F804
:1053D0009DED000B41EC180B53EC102B51EC1A0B0C
:1053E00003F06CF841EC1A0B53EC192B51EC180B31
:1053F00003F064F853EC1A2B02F088FF41EC100B19
:10540000CCE7000000000000000000000000F03FBA
:10541000D436000000000000000000000000E03F63
:105420003333D33F0000E93F000000000000D23FCB
:1054300070B504462DED028B4D1E00EBC500B0EE9D
:10544000408AF0EE608A90ED000B35F0060017D030
:1054500053EC182B51EC100B02F024FE41EC100B16
:105460006D1E04EBC50090ED001B51EC100B53ECCE
:10547000112B02F06DFB41EC100B35F00600E7D16B
:10548000022D36D0042D1CD0062D1CBFBDEC028B86
:1054900070BD53EC182B51EC100B02F003FE94ED91
:1054A0000A1B53EC112B02F053FB53EC182B02F0A8
:1054B000F9FD94ED081B53EC112B02F049FB41EC74
:1054C000100B53EC182B51EC100B02F0EBFD94ED8C
:1054D000061B53EC112B02F03BFB53EC182B02F094
:1054E000E1FD94ED040B53EC102B02F031FB41EC89
:1054F000100B53EC182B51EC100B02F0D3FD94ED74
:10550000021B53EC112B02F023FB53EC182B02F07F
:10551000C9FD94ED001B53EC112B02F019FBBDECFF
:10552000028B41EC100B70BD31B504462DED040B20
:105530002DED0A8BB0EE41BAF0EE61BA0B989DEDFD
:105540000A0B20F00040B0F1795F0DDA51EC100B3E
:10555000FEF7DAFA042808BF00F0CAF89DED0A0B3E
:10556000BDEC0A8B05B030BD53EC102B51EC100B89
:1055700002F098FD41EC180B9DED0A0B53EC182B33
:1055800051EC100B02F08EFD41EC190B2C48B0EEE3
:10559000480AF0EE680A05217844FFF749FF9FEDBD
:1055A0002ACBB0EE40AAF0EE60AA9CB353EC1C2BC1
:1055B00051EC190B02F076FD41EC1C0B53EC1A2B4D
:1055C00051EC190B02F06EFD9FED210B41EC190B14
:1055D00053EC102B51EC1B0B02F064FD53EC192B18
:1055E00002F06CFF53EC182B02F05CFD53EC1B2B0C
:1055F00002F064FF53EC1C2B02F060FF9DED0A1BD0
:1056000053EC112B02F082FEBDEC0A8B05B041EC8D
:10561000100B30BDFFE753EC1A2B51EC180B02F0C6
:1056200041FD53EC1C2B02F093FA53EC192B02F0C2
:1056300039FD9DED0A1B53EC112B02F089FAE3E7CB
:105640006435000000000000495555555555C5BF4B
:10565000000000000000E03F9FED070B10B553EC89
:10566000102B9FED070B51EC100B02F02DFB41ECC2
:10567000100B10BD00000000000000000000000042
:10568000000000000000F03F10B553EC102B51EC6F
:10569000100B02F05DFA41EC100B10BD10B553EC8D
:1056A000112B51EC100B02F053FA41EC100B10BD12
:1056B0009FED050B10B553EC102B51EC100B02F0C5
:1056C00003FB41EC100B10BD0000000000000000C7
:1056D0009FED050B10B553EC102B51EC100B02F0A5
:1056E000E1FC41EC100B10BD000000000000007058
:1056F0009FED050B10B553EC102B51EC100B02F085
:10570000D1FC41EC100B10BD0000000000000010A7
:1057100010B541EC100BFEF72FFA51EC100B10BD39
:1057200000BF3E48808800EE100AB8EE400ADFED68
:105730003C0A30EE600ADFED3B0A80EE201A9FED56
:105740003A0A21EE000A394880ED000A3348C08841
:1057500000EE100AB8EE400ADFED310A30EE600AC2
:10576000DFED300A80EE201A9FED2F0A21EE000AAD
:105770002F4880ED000A2948407A012805D19FED85
:105780002D0A2D4880ED000A0EE02448407A0228B8
:1057900005D19FED2A0A284880ED000A04E09FED1C
:1057A000280A254880ED000A1C488088B0F5B67F9D
:1057B00004DA9FED230A1E4880ED000A174880880E
:1057C00040F29461884204DD9FED1D0A184880ED87
:1057D000000A12480088B0F5B67F04DA9FED180A77
:1057E000124880ED000A0D48008840F2946188421A
:1057F00004DD9FED130A0D4880ED000A0E4890ED80
:10580000001A0A48D0ED000A094890ED000A0D4838
:10581000FDF765F9052000F075F882E7884B002058
:1058200000008044000025440000FA4404000020E9
:10583000000000200000484408000020000048C488
:1058400000000000B84A002082B0CDE9000121F03C
:10585000004001909DED000B02B051EC100B704721
:10586000028812B202814A780B7842EA032202804F
:10587000CA788B7842EA032212B242804A790B79C5
:1058800042EA032212B282808A7982717047000054
:10589000FCF7B6F8FDF704FEFDF77EF8FDF744F8D7
:1058A000FCF7FEFFFDF7C8F8FDF71CF80648FAF70D
:1058B0009BFF0648FAF7A8FF00F034F8FDF750F810
:1058C00000F046F800BFFEE7F8000020D0000020FE
:1058D00000BF084890ED001A0748D0ED000A0748BD
:1058E00090ED000A0648FDF7C9F8052000F00AF817
:1058F000EFE7000008000020040000200000002066
:10590000B84A002070B50546FEF732F910B16FF0C5
:10591000050404E0002415B1284601F0F7F82046FC
:1059200070BD000010B5FEF723F910B16FF005044B
:1059300009E00648006820B90120044908600024F5
:1059400001E04FF0FF34204610BD00007800002039
:1059500070B5FEF70DF910B16FF005041FE01148A6
:105960000068012819D100BF801F0021002804DB36
:105970000A07130E0C4A135406E00A07150E0B4AC9
:1059800000F00F031B1FD55400BF00BF02200549C4
:10599000086001F037F9002401E04FF0FF342046A1
:1059A00070BD00007800002000E400E018ED00E089
:1059B0002DE9FF4780468946144600200390FEF7F4
:1059C000D7F800284ED1B8F1000F4BD0802618250B
:1059D0008246471E44B3206808B1D4F800A0A069ED
:1059E00000B1A5692DB1382D03D8207900F0010050
:1059F00018B1002004B0BDE8F087606908B16069A3
:105A00008608A06840B1E0685C2805D3206918B119
:105A1000606908B1012708E0A06830B9E06820B9E2
:105A2000206910B9002700E00027012F0CD121695F
:105A3000A0684B463246CDE900510290514640469F
:105A400001F094FD03900DE067B903A8B2B24B4694
:105A50005146CDE90050404601F056FD012801D0E5
:105A6000002003900398C5E70EB5F0EE401AB0EEA3
:105A7000602AF2EE022ACDED002ADFED302ACDEDCC
:105A8000012AF6EE002ACDED022A71EEC22AB0EE0E
:105A9000620ADFED2B2AB4EEE20AF1EE10FA0ADD1B
:105AA000DFED282A70EE622AB0EE620A9FED261A18
:105AB000DFED250A12E0DFED252AB4EEE20AF1EE71
:105AC00010FA0AD2DFED1F2A70EE222AB0EE620A27
:105AD0009FED1D1ADFED1C0A00E000BFDDED022A7C
